S0150000444D58436F6E74726F6C6C65722E7372656302
S11300000C94FE000C9408010C9408010C94080153
S11300100C9408010C9408010C9408010C94080138
S11300200C9408010C9408010C9408010C94080128
S11300300C9408010C9408010C9408010C94080118
S11300400C9408010C9408010C9408010C94080108
S11300500C9408010C9408010C9408010C940801F8
S11300600C9408010C9408010C9408010C940801E8
S11300700C9408010C9408010C9408010C940801D8
S11300800C9408010C9408010C9408010C940801C8
S11300900C9408010C9408010C9408010C940801B8
S11300A00C9408010C9408010C9408010C940801A8
S11300B00C9408010C9408010C9408010C94080198
S11300C00C9408010C9408010C9408010C94080188
S11300D00C9408010C9408010C9408010C94080178
S11300E00C9408010C9408010C9408010C94080168
S11300F00C9408010C9408010C9408010C94080158
S11301000C9408010C9408010C9408010C94080147
S11301100C9408010C9408010C9408010C94080137
S11301200C9408010C9408010C9408010C94080127
S11301300C9408010C9408010C9408010C94080117
S11301400C9408010C9408010C9408010C94080107
S11301500C9408010C9408010C9408010C940801F7
S11301600C9408010C9408010C9408010C940801E7
S11301700C9408010C9408010C9408010C940801D7
S11301800C9408010C9408010C9408010C940801C7
S11301900C9408010C9408010C9408010C940801B7
S11301A00C9408010C9408010C9408010C940801A7
S11301B00C9408010C9408010C9408010C94080197
S11301C00C9408010C9408010C9408010C94080187
S11301D00C9408010C9408010C9408010C94080177
S11301E00C9408010C9408010C9408010C94080167
S11301F00C9408010C9408010C94080111241FBEEE
S1130200CFEFDFE2DEBFCDBF0E9481010C949801E5
S11302100C94000082E080935000E0E5F0E08181DE
S113022081FFFDCF88ED84BF81E080934000E0E44E
S1130230F6E08481806884838081806A8083A0EB77
S1130240B8E087E016968C93169717961C9217972A
S113025015968C9115978B6015968C93159714961B
S11302608C911497886014968C9384818062848323
S11302700895AFE9BFE01197F1F700C00000E0EB8B
S1130280F8E02FE026831782EFE9FFE03197F1F7DA
S113029000C00000E0EBF8E0218125FFFDCFE0EB9A
S11302A0F8E01082AFE9BFE01197F1F700C0000059
S11302B0178227E02683EFE9FFE03197F1F700C0CA
S11302C00000E0EBF8E0218125FFFDCF2FEF209324
S11302D0B008E0EBF8E0218125FFFDCF1092B008D3
S11302E0A82FB92F80E090E0E0EBF8E0218125FF12
S11302F0FDCF2D9120830196811522E09207B1F75D
S11303000895CF93DF93CDB7DEB7D250CDBFDEBF14
S11303100E940A01FE013196CE018F5F9D4F11921A
S1130320E817F907E1F7CE0101960E943901FBCFE6
S1070330F894FFCF6B
S9030000FC
