:1000000003C1000020C100001EC100001CC100008F
:100010001AC1000018C1000016C1000014C1000080
:1000200012C1000010C100000EC100000CC1000090
:100030000AC1000008C1000006C1000004C10000A0
:1000400002C1000000C10000FEC00000FCC00000B2
:10005000FAC00000F8C00000F6C00000F4C00000C4
:10006000F2C00000F0C00000EEC00000ECC00000D4
:10007000EAC00000E8C00000E6C00000E4C00000E4
:10008000E2C00000E0C00000DEC00000DCC00000F4
:10009000DAC00000D8C00000D6C00000D4C0000004
:1000A000D2C00000D0C00000CEC00000CCC0000014
:1000B000CAC00000C8C00000C6C00000C4C0000024
:1000C000C2C00000C0C00000BEC00000BCC0000034
:1000D000BAC00000B8C00000B6C00000B4C0000044
:1000E000B2C00000B0C00000AEC00000ACC0000054
:1000F000AAC00000A8C00000A6C00000A4C0000064
:10010000A2C00000A0C000009EC000009CC0000073
:100110009AC0000098C0000096C0000094C0000083
:1001200092C0000090C000008EC000008CC0000093
:100130008AC0000088C0000086C0000084C00000A3
:1001400082C0000080C000007EC000007CC00000B3
:100150007AC0000078C0000076C0000074C00000C3
:1001600072C0000070C000006EC000006CC00000D3
:100170006AC0000068C0000066C0000064C00000E3
:1001800062C0000060C000005EC000005CC00000F3
:100190005AC0000058C0000056C0000054C0000003
:1001A00052C0000050C000004EC000004CC0000013
:1001B0004AC0000048C0000046C0000044C0000023
:1001C00042C0000040C000003EC000003CC0000033
:1001D0003AC0000038C0000036C0000034C0000043
:1001E00032C0000030C000002EC000002CC0000053
:1001F0002AC000000C945A0C0C94170D6364696EAD
:100200006F70737578585B0011241FBECFEFDFE26B
:10021000DEBFCDBF10E2A0E0B0E2EEEEF6E200E01D
:100220000BBF02C007900D92A43DB107D9F723E29E
:10023000A4EDB0E201C01D92AE35B207E1F70E9415
:100240001C0E0C947513DCCE2FB7F894FC01E0590A
:10025000FF4F60958081862380832FBF089586306D
:1002600011F468E101C060E08091510081FF08C095
:10027000636084E490E090D660E480E090E0E4CFB6
:100280009FB7F894809150008260809350009FBF88
:100290008091510081FFFCCFEBCF1092DD201092B6
:1002A000DE201092DF2081EA8093E02080E28093BC
:1002B000E1201092E2201092E3201092E4201092AC
:1002C000E52082E090E08093E6209093E720109272
:1002D000E8201092E92080E092ECA1E0B0E0809369
:1002E000EA209093EB20A093EC20B093ED201092A5
:1002F000EE201092EF2088E08093F0208091DD20A6
:100300008F5F8093DD2081E008958091DD20815012
:100310008093DD2008958091DC2081508093DC2043
:100320008091DC201092DB20089580E0089580E029
:100330000895089590914423892F807697FF0EC0E9
:10034000803271F580914523813251F580914A23A5
:1003500090914B238730910519F516C0803201F535
:1003600080914523803219F08232D1F417C08091F8
:100370004A2390914B238730910591F429E931E08C
:1003800020935023309351232AEE30E220934C23C4
:1003900030934D2380934E2390934F2381E0089513
:1003A00080E00895FF920F931F93CF93DF93809186
:1003B000D52081118BC00E94F20AC091F520D09106
:1003C000F6208823A9F00E94000BC817D90709F46A
:1003D0007DC0DFB7F894C091D620EC2FF0E0EE0F8F
:1003E000FF1FEF50FF4D80819181892B29F503C0BC
:1003F0000E94FA0AEACF8091FB209091FC2001969E
:100400008093FB209093FC200E94F20A811109C086
:100410008091FB209091FC208436910510F4DFBF81
:1004200055C00E94F20A882339F08091FB209091F8
:10043000FC208032934098F31092FB201092FC2015
:100440008091D420811106C081E0C11180E08093A9
:10045000D62004C081E0C11180E0C82F81E08093E4
:10046000D520DFBFD0E08E01000F111FF801EF5043
:10047000FF4DFF24F394808191818034910531F404
:10048000F12C1092F5201092F6200DC00E94F20A75
:10049000882319F00E94000B02C00E94FA0A809380
:1004A000F5209093F620F801EF50FF4D2081318127
:1004B000AE0186E0440F551F8A95E1F742505F4D2B
:1004C0000DE612E06F2D81E80E94920BDF91CF9133
:1004D0001F910F91FF90089565CF892B99F480911A
:1004E000D620E1E0F0E0882311F0E0E0F0E0EE0F4C
:1004F000FF1FEF50FF4D108211821092D4201092F6
:10050000D52050CF08954FB7F8948091D82090917E
:10051000D920E091DA20F0E0EE0FFF1FE950FF4D07
:1005200020813181281B390B4FBFC9010895EBDFB2
:1005300021E0892B09F420E0822F08950F931F9367
:10054000CF93DF934FB7F8945091DA208091D72062
:10055000811110C02091D8203091D920C52FD0E032
:10056000FE01EE0FFF1FE950FF4D8081918128179A
:10057000390718F44FBF80E01FC01092D8201092A6
:10058000D92081E0511180E08093DA2081E08093CE
:10059000D7204FBF80E0CBDFAE0166E0440F551F90
:1005A0006A95E1F742585E4D01EE12E020E430E03A
:1005B00061E082E00E94920BDF91CF911F910F9139
:1005C00008950F931F93A42F892B29F58091DA208A
:1005D000E1E08111E0E0F0E06115710589F4AF011F
:1005E000B6E0440F551FBA95E1F742585E4D01EE53
:1005F00012E020E430E061E08A2F0E94920B0BC0F1
:10060000EE0FFF1FE950FF4D608371831092D720DA
:100610001F910F9193CF1F910F9108951092DC209D
:100620001092D5201092D4201092D6201092F12052
:100630001092F2201092F3201092F4201092F520E4
:100640001092F620AFDE1092D7201092DA2010928E
:10065000F7201092F8201092D8201092D9206EDF47
:10066000882361F08091DC208F5F8093DC20809173
:10067000DC20813029F48093DB20089580E0089508
:1006800081E008951F93CF93DF9311E08091F020D4
:10069000893009F010E0C0E0D0E02FB7F8948091E5
:1006A000D8209091D920E091DA202FBFF0E0DF012F
:1006B000AA0FBB1FA950BF4D2D913C9182179307E4
:1006C00038F08091DB208111E8CFC0E0D0E017C086
:1006D00026E0EE0FFF1F2A95E1F7E80FF91FE25819
:1006E000FE4D2081C22B01968093D8209093D92073
:1006F00025DF112321F0DC2FCC2710E0CECFCE0157
:10070000DF91CF911F91089580E0BCCF5FB7F8943F
:100710002091D620E22FF0E0EE0FFF1FEF50FF4DAB
:100720008081918141E0211140E0E42FF0E0EE0F63
:10073000FF1FEF50FF4D208131818034910589F4F6
:100740006091D52061110DC06091D420611109C064
:1007500081E08093D4204093D62020E430E080E0F4
:1007600090E05FBF820F931F20E830E0281B390B19
:10077000C9010895CBDF21E0892B09F420E0822F05
:1007800008951F93CF93DF93EB0111E08091F02048
:10079000893009F010E080E0EDDF811107C0809121
:1007A000DB208111F8CF20E030E023C02FB7F89490
:1007B000E091D620F0E0DF01AA0FBB1FAF50BF4D84
:1007C0008D919C91119736E0EE0FFF1F3A95E1F75E
:1007D000E80FF91FE250FF4DC08301968D939C9363
:1007E0002FBF112321F0CD2FDD0FDD0BD3CF21E063
:1007F00030E0C901DF91CF911F910895BC0180E0E5
:10080000C0CF809146238F77EFC690910022992325
:1008100069F1E0910122F09102220190F081E02D36
:100820009481891708F022C0E093FE21F093FF2104
:10083000228133812E0F3F1F12C09181943061F4C9
:100840009281891309C09381691306C0E093FE2148
:10085000F093FF2181E008959081E90FF11DE217E7
:10086000F30758F3E093FE21F093FF2180E0089511
:10087000E0910122F09102220190F081E02D22818D
:1008800033812E0F3F1FFC014081E40FF11D08C092
:100890008181843041F0853041F08081E80FF11D85
:1008A000E217F307A8F3E0E0F0E0CF0108950F931B
:1008B0001F93CF93DF93C82F60E0A7DF882369F1F0
:1008C000E0910122F091022292818381E92FF82F99
:1008D000EC0FF11DEC0FF11D00811181D80116966E
:1008E000ED91FC9117970995682F8C2F8EDF882347
:1008F000A1F0C091FE21D091FF21CE01B9DFEC0122
:10090000009719F08A81CDD7F8CFD8011296ED91D2
:10091000FC911397099581E001C080E0DF91CF91B0
:100920001F910F9108951F93CF93DF93182F6DDFC1
:10093000882339F1C091FE21D091FF21CE0198DFAB
:10094000EC01009741F04C815D816B818A8164D616
:100950008111F4CF16C0E0910122F0910222928120
:100960008381E92FF82FE10FF11DE10FF11D0190B7
:10097000F081E02D0190F081E02DDF91CF911F916A
:10098000099480E0DF91CF911F910895BCC5CF936A
:100990008091002281110DC01092002281E090E030
:1009A000809303229093042210C08C2F80DFCF5FAE
:1009B00001C0C0E0E0910122F09102220190F0819B
:1009C000E02D8481C81788F3E7CFCF910895CF93A6
:1009D00080910022811114C01EC092818381E92F71
:1009E000F82FEC0FF11DEC0FF11D0190F081E02DBF
:1009F0000084F185E02D309709F00995CF5F01C0A3
:100A0000C0E0E0910122F0910222A081B181149610
:100A10008C91C81710F3CF910895EF92FF920F9326
:100A20001F93CF93DF931F92CDB7DEB710924E2363
:100A300010924F2310925023109251231092522360
:100A4000109253232091442327FF07C080914A230B
:100A500090914B23892B09F431C2822F807609F0C3
:100A6000B5C127FFE3C080914A2390914B230097A3
:100A700009F4ACC12F7109F086C0209145232630BE
:100A800069F0283009F477C02111A0C1029709F05C
:100A90009DC162E070E083E092E2C6C0809146238F
:100AA00090914723292F33272230310579F02330C5
:100AB000310561F12130310509F088C180911A209A
:100AC00090911B20DC016C9170E043C0E0911A20F2
:100AD000F0911B202189821708F078C19927880F8F
:100AE000991F880F991FE0911C20F0911D20E80F9D
:100AF000F91F80819181FC016281738184D5E0912D
:100B00004C23F0914D2382E0818324C099278130CA
:100B1000910529F040F0029709F058C1C7C167E07C
:100B200080E890E2C6C164E070E08CE790E211C01A
:100B300081918C9311961C92119712968E2F821B85
:100B40008617B0F3660F6E5F60939C2070E08CE9AF
:100B500090E259D580914A2390914B2320914E23C6
:100B600030914F238217930708F02EC180934E23B4
:100B700090934F2329C1019709F028C161E070E0EB
:100B800080E092E251C02130D1F5209145232A30F6
:100B900009F01CC1019709F019C180910022882336
:100BA00009F414C1E0904823F090492300910122F8
:100BB00010910222D801ED91FC918481E81608F091
:100BC00005C160E08E2D21DE882309F4FFC0FF24DB
:100BD000EE0CFF1CD8011296ED91FC911397EE0DCF
:100BE000FF1D0190F081E02D0680F781E02D099531
:100BF0008093052261E070E085E092E215C022302A
:100C000009F0E4C0209145232111E0C0029709F0CA
:100C1000DDC08091482366D580930622109207227A
:100C200062E070E086E092E2EED4CEC02F7109F06F
:100C30007EC080914523833009F4C8C020F4813000
:100C400009F0C4C014C0853021F0893009F0BEC05D
:100C500026C080914A2390914B23892B09F0B6C07E
:100C600081E094E08093502390935123ADC0809114
:100C70004A2390914B23892B09F0A8C080914623E9
:100C800090914723019709F0A1C080910322909190
:100C900004228D7F809303229093042295C080913B
:100CA0004A2390914B23892B09F090C0A0D488232C
:100CB00009F48CC080914623909147239927E091B5
:100CC0001A20F0911B20218930E02817390708F4F9
:100CD0007DC05DDE80914623909147238093002262
:100CE000882309F471C099270197880F991F880FED
:100CF000991F20911C2030911D20280F391F20930F
:100D000001223093022210E007C060E0812F0BDE49
:100D1000882309F45BC01F5FE0910122F091022259
:100D20000190F081E02D8481181778F34DC02130B7
:100D3000F1F4809145238B3009F048C080914A231B
:100D400090914B23892B09F041C080910022882388
:100D500009F43CC01091482360914623812F698398
:100D6000A6DD6981882391F1812FDDDD2BC0223042
:100D700069F580914523813019F0833039F510C031
:100D800080914A2390914B23892B01F58091462332
:100D900090914723892BD1F480914823AAD412C083
:100DA00080914A2390914B23892B81F48091462393
:100DB00090914723892B51F48091482336D5809117
:100DC00048235FD5882311F081E079C080914423C6
:100DD0008F718130B9F580910022882399F1E090DC
:100DE0004823F09049230091012210910222D8015A
:100DF000ED91FC918481E81628F560E08E2D05DDEB
:100E0000882301F1C7019927880F991FD8011296ED
:100E1000ED91FC911397E80FF91F00811181D80122
:100E20001696ED91FC9117970995682F8E2DEDDCA4
:100E3000882341F0D8011496ED91FC9115970995FE
:100E40008111C2CF809144238F718230B9F5809196
:100E50000022882399F110E01EC092818381E92F3E
:100E6000F82FE10FF11DE10FF11DE080F180D701B6
:100E70001696ED91FC9117970995682F812FC5DC87
:100E80008823E1F0D7011496ED91FC91159709950F
:100E900081119ACF1F5FE0910122F0910222A0817F
:100EA000B18114968C911817C0F208C062E188E8ED
:100EB00090E2282FAEE9B0E2FC013ACE80E00F903C
:100EC000DF91CF911F910F91FF90EF900895CF93F5
:100ED000DF931F92CDB7DEB78091422390914323D9
:100EE000E0913E23F0913F23BE016F5F7F4F099554
:100EF0008981282F332727FD3095932F0F90DF917D
:100F0000CF910895CF93DF93EB0180910822811157
:100F100002C0188202C0F8DB8883DF91CF91089568
:100F200080910822882359F0862F992787FD909574
:100F300065DC892B09F003C02FEF3FEF02C020E0F2
:100F400030E0C9010895109242231092432380E9B2
:100F500097E0809340239093412382E897E0809329
:100F60003E2390933F2312DD67E677E089EB97E01D
:100F7000A7C6682F8091422390914323E09140239C
:100F8000F0914123099597FF03C02FEF3FEF02C077
:100F900021E030E0C90108951BBEFC0128ED24BF0B
:100FA000608308954091CA01E62FF72F8093CA010C
:100FB00084914093CA01089590917022811113C0C9
:100FC000992371F02FB7F89490913923915005C06F
:100FD0002FB7F894909139239F5F909339232FBFB7
:100FE0008093702208959111FBCFF2CF982F9F70BC
:100FF000282F332727FD30952227330F221F332731
:10100000290F311D290F311D93E0220F331F9A95AF
:10101000E1F7285E3D4DC90108950F93E8ECF4E037
:1010200080818F7D808380818F7D8083E0E2F2E20A
:1010300002E00593109222221092232200E20693EE
:1010400000E40693E8E1F2E200E2069300E406938E
:101050001092502310925123109252231092532336
:1010600010924E2310924F2310923123109232236C
:101070000F9108950F9385E090E080933123909332
:101080003223E1E2F2E204E00593E9E1F2E204E076
:1010900005930F9108950F9383E090E0809331239F
:1010A000909332231092222210922322E0E2F2E265
:1010B00002E006930F910895E0915023F09151239F
:1010C000309709F009940895982F9F70282F33279F
:1010D00027FD30952227330F221F3327290F311D7B
:1010E000290F311D2250310989E0829FA001839F81
:1010F000500D1124445B5D4DCA010895BF92CF92FB
:10110000DF92EF92FF920F931F93CF93DF93B82E4E
:10111000DBDFEC018B2D6ADF7C01DC011196EC91A9
:10112000E770E150E73040F4F0E0EE0FFF1FEE53C0
:10113000FF4D0081118102C008E010E08D819E8189
:10114000B7FE4FC0F70126813781280F391F2D8345
:101150003E838B819C81488128173907B1F1BC01FE
:10116000621B730B9B01211574E0370738F02FEFDA
:1011700033E0C901B80187D5281B390B41FF0BC0EB
:10118000C901B80180D541E050E0892B11F040E061
:1011900050E0CA0102C080E090E0988180FB91F9A4
:1011A0009883D70116961D921C92179712962D932D
:1011B0003C93139789819A812D813E81820F931FE1
:1011C00014968D939C93159708C041FF70C04D7F76
:1011D00048831682178212821382F70102E0069377
:1011E0007EC0D7011296CD90DC901397288122FF04
:1011F00012C029813A81280F391F8B819C81B80147
:1012000042D5B0E4BB9EF0011124EF5CFD4DAC0172
:10121000BF01C9014CD58D819E818C0D9D1D8D8393
:101220009E832B813C812817390710F42D833E8340
:10123000F70186819781C816D906C9F58D819E81EF
:1012400082179307A1F1281B390B2115F4E03F0702
:1012500010F02FEF33E0C901B80115D5281B390B69
:10126000D70112961D921C9213972017310778F41C
:10127000888184608883B0E4BB9EC00111248F5CA8
:101280009D4DF7018483958306831783A6CF8981BB
:101290009A814D815E81840F951FD70114968D939D
:1012A0009C93159716962D933C93179796CF88810C
:1012B00080FF15C08E7F8883EF81F885309779F0A5
:1012C0006D817E814B2D80E090E0DF91CF911F9169
:1012D0000F91FF90EF90DF90CF90BF900994DF9136
:1012E000CF911F910F91FF90EF90DF90CF90BF9023
:1012F00008950F93CF93DF93809131239091322300
:10130000039729F4D9DEDF91CF910F9186CE2091FA
:10131000352330913623C0914E23D0914F23C21BE9
:10132000D30B79F58091332390913423820F931F4F
:10133000809333239093342320914A2330914B237D
:101340002817390721F080913723882349F084E05A
:1013500090E08093312390933223E8E1F2E236C0AB
:10136000E0915223F0915323309799F00995882307
:1013700081F01092352310923623C0914E23D091E4
:101380004F23C034D10528F010923723C0E4D0E0B9
:1013900003C081E080933723C0932222D09323227D
:1013A000209135233091362380914C2390914D2309
:1013B000820F931F8093242290932522C20FD31F64
:1013C000C0933523D0933623E0E2F2E202E00693A5
:1013D000DF91CF910F9108950F938091CC0480FFFE
:1013E0006AC021E02093CC0488E192E2FC0100E88D
:1013F0000693E0E2F2E200E806932093CA04FC01BF
:1014000000E106938091312390913223009729F0D7
:101410000397029708F450DE00DE80911A22909123
:101420001B22089709F049C088E0E1EFF2E2A4E44A
:10143000B3E201900D928A95E1F78091C804806231
:101440008093C8048091C80480628093C804E5DA60
:10145000811102C00FDE31C08091442387FF10C08C
:101460001092332310923423109235231092362396
:1014700082E090E080933123909332233ADF1DC0C5
:1014800080914A2390914B23892B11F404DE15C0DF
:101490001092332310923423109235231092362366
:1014A00081E090E08093312390933223E8E1F2E2EF
:1014B00002E0069302C080E001C081E00F91089530
:1014C000CF93CFB7F89481E077DDEAECF4E080E4E5
:1014D000808380E28083E1ECF4E08081816080831E
:1014E000A9ECB4E08C9182608C93E8ECF4E080810C
:1014F000806480838C9181608C93808180688083FC
:10150000CFBFCF910895CF9380E30E942F018091A8
:10151000C00480648093C004CFB7F894109219225D
:1015200010922122109229221092312210923922F7
:101530001092412280914C228E7F80934C22809188
:1015400055228E7F8093552280915E228E7F8093DC
:101550005E22809167228E7F809367226AE170E02D
:1015600082E020DD8F3F09F001C08FE18093FA0413
:101570006BE170E082E016DD8F3F09F001C08FE182
:101580008093FB048091C00482608093C0048091AA
:10159000C00480688093C0048091C00480618093FF
:1015A000C00488E192E28093C6049093C7048091BE
:1015B000C00480628093C0048FEF8093C504809143
:1015C000C80481608093C804109270229FB7F89479
:1015D00080913D238F5F80933D239FBF71DFCFBFFD
:1015E000CF91089580E008958093C3040895809179
:1015F000C30408952091482230914922C9010895D9
:1016000080E090E0089580934C2390934D23609365
:101610004E2370934F2308950F931F93CF93DF931F
:101620001F92CDB7DEB78A016983E0DCFC018181BE
:10163000807C698181114DC06370613039F018F48C
:1016400020E430E005C020E830E002C020EC30E0CB
:1016500000381105F9F050F400321105A9F00034FA
:101660001105A9F00031110561F420C0011582E0D7
:101670001807B1F00F3FA3E01A07A9F001151140B8
:1016800061F080E090E014C082E090E011C083E05F
:1016900090E00EC084E090E00BC085E090E008C0D0
:1016A00086E090E005C087E090E002C081E090E035
:1016B000118296E09083822B81838181807C803CA3
:1016C00021F481818770873031F08181806281834C
:1016D00002C080E001C081E00F90DF91CF911F91A7
:1016E0000F91089583DCFC01818182FB882780F9BA
:1016F0000895CF93C82F7ADCFC01818182FF0FC04F
:1017000091819B7F91838C2FDFDCFC01808180FFA6
:1017100006C08E7F80830780F085E02D099581E0EB
:10172000CF9108958F929F92AF92BF92DF92EF92E6
:10173000FF920F931F93CF93DF931F92CDB7DEB726
:10174000D82E5A0179016983BFDC4C018D2D4EDC06
:10175000FC018181807C6981882309F458C08181E2
:10176000807C803C19F0818182FD51C08FB7F89454
:10177000D4019C9190FF02C08FBF49C09160D401F9
:101780009C938FBF1196AD92BC9212971396ED92D7
:10179000FC92149715961D921C92169717960D930E
:1017A0001C93189721E030E0611105C0E114F104A9
:1017B00011F020E030E0D4018C9120FB81F98B7F87
:1017C0008C93D7FC1EC08181807C803CC1F4A181B8
:1017D000A770A150A73040F4B0E0AA0FBB1FAE53D2
:1017E000BF4D6D917C9102C068E070E0C7014BD2A3
:1017F000892B29F0F40180818E7F808308C01282BA
:101800001382168217828D2D79DC81E001C080E081
:101810000F90DF91CF911F910F91FF90EF90DF908C
:10182000BF90AF909F908F9008950F931F93CF9389
:10183000DF93182FDBDBEC01812F46DCDC01FE019E
:1018400002E005938C9180FF17C08E7F8C931796D2
:10185000ED91FC911897309779F017FF03C06E81D6
:101860007F8102C06A817B81412F81E090E0DF911E
:10187000CF911F910F910994DF91CF911F910F91FB
:1018800008950F93CF93C82FB1DBFC019181946031
:10189000918301E006938C2FC8DF81E0CF910F91F7
:1018A0000895CF93C82FC1DF8C2FA0DBFC011182DC
:1018B000CF9108951F920F920FB60F9211240BB67D
:1018C0000F920F932F933F934F935F936F937F9359
:1018D0008F939F93AF93BF93CF93DF93EF93FF9338
:1018E0008091CB0487FF05C080E88093CA046FD83D
:1018F00088C08091CB0482FF1BC084E08093CA041F
:101900008091202286FF7DC08091CC0481FD79C02A
:1019100063DD811176C08091312390913223813033
:10192000910511F4B8DB6DC0049709F06AC027C0B7
:101930008091CB0481FF60C082E08093CA048091D3
:10194000182286FF5EC08091CC0481FD5AC044DD20
:10195000811157C0809131239091322382309105BB
:1019600059F484E090E08093312390933223E8E1AE
:10197000F2E202E0069345C0039709F042C0E1E2BB
:10198000F2E204E00593E9E1F2E204E0059339C0F4
:1019900080E18093CA0481E048DF81E846DF0E944D
:1019A000C7041092C30480E021DBFC011182D6E061
:1019B000D083C3E4C18380E819DBFC011182D083AA
:1019C000C18381EF92E280931C2290931D2225DB3C
:1019D00018C08091CB0486FF05C080E48093CA04C0
:1019E00080E008C08091CB0485FF0BC080E280932B
:1019F000CA0481E0E1DA05C08091CB0484FDC8CF40
:101A0000E8CFFF91EF91DF91CF91BF91AF919F917F
:101A10008F917F916F915F914F913F912F910F9196
:101A20000F900BBE0F900FBE0F901F9018951F9236
:101A30000F920FB60F9211240BB60F920F931F93B4
:101A40002F933F934F935F936F937F938F939F93C6
:101A5000AF93BF93CF93DF93EF93FF938091CC0429
:101A600081FF1AC082E08093CC048091C5048195E7
:101A7000880FE8E1F2E2E81BF10920813181285169
:101A8000324273E0369527957A95E1F7C22FC695D5
:101A900020FF06C080E805C09FDC882319F38AC0B8
:101AA00080E0C80F8C2FA2DAFC01808185FF82C004
:101AB00000E20693C11178C08091312390913223C6
:101AC000049719F4F9DAA9DA75C0C0911A22D091F5
:101AD0001B2280914E2390914F230091352310912A
:101AE000362398012C0F3D1F8217930718F4EC0141
:101AF000C01BD10B20914C2330914D23200F311F5F
:101B000081EF92E2AE01BC01C901D1D00C0F1D1FC3
:101B10000093352310933623C034D10569F48091A6
:101B2000332390913423800F911F20914A233091C9
:101B30004B238217930788F000934E2310934F2373
:101B4000E0915223F0915323309729F009958111A8
:101B500002C090DA2FC09FDA2DC080914E23909161
:101B60004F2380179107D9F4E0915223F09153232A
:101B7000309779F30995882361F38091332390910D
:101B800034232091352330913623820F931F809385
:101B90003323909334231092352310923623E8E1B7
:101BA000F2E202E0069306C0C03811F4A2DB02C0E4
:101BB0008C2FA4DAFF91EF91DF91CF91BF91AF917C
:101BC0009F918F917F916F915F914F913F912F9155
:101BD0001F910F910F900BBE0F900FBE0F901F9093
:101BE000189582E0809350008091510081FFFCCFD6
:101BF00088ED84BF81E08093400080914406806836
:101C00008093440680914006806A8093400687E076
:101C10008093B6081092B7088091B5088B608093C6
:101C2000B5088091B40888608093B4088091440618
:101C30008062809344060895CF93DF931F92CDB7BF
:101C4000DEB787E08093A2007894CBDF7CD90E9436
:101C5000C6048E010F5F1F4F80EDE82E80E2F82E44
:101C60001F930F93FF92EF927AD00F900F900F90E7
:101C70000F9089818823A1F38AE090E06BD089815D
:101C800090E068D0EDCFAA1BBB1B51E107C0AA1F93
:101C9000BB1FA617B70710F0A61BB70B881F991F0D
:101CA0005A95A9F780959095BC01CD010895FB0147
:101CB000DC0102C001900D9241505040D8F70895C8
:101CC0000F931F93CF93DF93EC018B01009731F4B7
:101CD0006115710519F4E0E0F0E036C06EE070E0E7
:101CE00081E090E008D3FC010097A9F380E88383AA
:101CF0000115110571F00287138781E883838091B4
:101D0000542390915523892B21F4E0935423F0938D
:101D100055232097C9F0C087D18783818260838350
:101D20008091562390915723892B71F4E093562389
:101D3000F09357238091582390915923892B21F4B4
:101D4000E0935823F0935923CF01DF91CF911F9156
:101D50000F91089560915623709157237CC4CF93BF
:101D6000DF93CDB7DEB7FE01359661917191AF017A
:101D700080915423909155239ED1DF91CF91089566
:101D800020FD09C0FC0123FD05C022FF02C07383B2
:101D90006283518340830895CF92DF92EF92FF9246
:101DA0000F931F9344FD10C046FD10C0DB01FC01E2
:101DB000AA0FBB1FEE1FFF1F1094D1F76A0F7B1FE6
:101DC0008E1F9F1F31E003C033E001C034E0660F77
:101DD000771F881F991F3150D1F76B017C01C20E0C
:101DE000D11CE11CF11C97018601B601C9011F91AC
:101DF0000F91FF90EF90DF90CF9008950F931F9376
:101E0000CF93DF938C01C801E6D3EC0197FD06C0A8
:101E1000C8D3892BC1F7B801CE0149D4CE01DF91D7
:101E2000CF911F910F9108958F929F92AF92CF9271
:101E3000DF92EF92FF920F931F93CF93DF93EC010A
:101E4000A62E4A01022FC7D3AC0155274B325105AC
:101E500021F04D32510549F40068AA9411F480E054
:101E60005CC0CE01B8D397FDFACF102F1D7F302F65
:101E70003073D1F48033C1F4AA9409F43BC0CE018D
:101E8000AAD397FD37C0883711F0883541F4126422
:101E9000AA9481F1CE019FD397FF06C02BC006FF05
:101EA00002C0126001C01261C12CD12C7601282F12
:101EB0002053283078F014FF03C0BE01F8D317C0B8
:101EC0002A3040F016FFF9CF2F7D322F31513630B6
:101ED000A0F72750412FC701B6015EDF6B017C01DF
:101EE0001260AA9451F0CE0176D397FFE0CF11FD96
:101EF00004C0B5CFC12CD12C760117FF08C0F094D7
:101F0000E094D094C094C11CD11CE11CF11C212F81
:101F1000B701A601C40134DF81E0DF91CF911F91A9
:101F20000F91FF90EF90DF90CF90AF909F908F90A8
:101F300008956F927F929F92AF92BF92CF92DF925D
:101F4000EF92FF920F931F93CF93DF93CDB7DEB73E
:101F5000A197CDBFDEBF6C017A018901FE013196E8
:101F600080E2DF011D928A95E9F7D60113969C90D5
:101F700020E030E0A12CA0E0B12CCF0141E050E006
:101F8000F80193FC759193FE71918F01711103C05B
:101F900000E010E07EC07E3519F42115310559F1BD
:101FA000EB2DF0E0E217F3073CF47D3569F17D326B
:101FB00019F4AA2319F103C0A11101C0A72EE72F1C
:101FC000E695E695E6953C016E0E711CF301A72F90
:101FD000A7703A0102C0660C771CAA95E2F7D301FC
:101FE000B081BA2BB0837A1559F07A1510F47F5F5F
:101FF000E6CF7150E4CFBB24B39403C0A1E001C08D
:10200000A0E02F5F3F4FBCCFAA2319F08E818062E2
:102010008E83B11003C0BB24B3940BC0FE01319674
:10202000CE018196208120952193E817F907D1F7F9
:10203000F2CFC60169A3CFD269A197FD23C0282F93
:10204000269526952695E1E0F0E0EC0FFD1FE20FC6
:10205000F11D208130E0AC014770552702C0359555
:1020600027954A95E2F720FD03C0B60120D30AC0A8
:10207000E114F10419F0D7018D937D016150B12C69
:10208000C1F602C0B11084CFE114F10411F0F701E0
:102090001082C801A196CDBFDEBFDF91CF911F9105
:1020A0000F91FF90EF90DF90CF90BF90AF909F90F7
:1020B0007F906F9008954F925F927F928F929F9240
:1020C000AF92BF92CF92DF92EF92FF920F931F9346
:1020D000CF93DF931F92CDB7DEB78C012B017A012E
:1020E000FC0116821782A12CE2C08C2D90E059D2FF
:1020F000892B19F0C80182DEDAC0F5E2CF120AC0DE
:10210000F201D3FC3591D3FE31912F01353261F4C8
:1021100055E2C52EC8015FD297FDD4C0C81609F498
:10212000C6C0B801C4D2D0C03A3241F4D3FC359114
:10213000D3FE31912F01BB24B39401C0B12C712C7B
:102140000FC0F2E0BF2A672D70E080E090E040E22F
:1021500023DE762EF201D3FC3591D3FE31912F018F
:10216000232F20532A3068F3B1FE03C0711003C03F
:10217000ABC077247A94383619F03C3699F40AC00B
:10218000F201D3FC3591D3FE31912F01383651F451
:10219000F8E0BF2A84E0B82AF201D3FC3591D3FEDF
:1021A00031912F01332309F48FC0632F70E08CEF3E
:1021B00091E03983FED13981892B09F485C0B0FCC7
:1021C00007C0F701C080D18082E0E80EF11C02C098
:1021D000C12CD12C3E3649F4F8014681578160E08C
:1021E00070E02B2DC601CCDD62C0333689F4B1FC22
:1021F00002C077247394C801EED197FD63C0C11467
:10220000D10419F0F60181936F017A94A1F74DC0C2
:102210003B3551F49201A601672DC8018ADE2C01DD
:10222000009709F042C03CC0C8013983E7DD39811D
:1022300097FD48C03F3641F128F4343611F1393664
:1022400031F527C0333719F0353709F51AC0C80101
:10225000C2D14C0197FD0FC0A4D1892B21F0B80148
:10226000C40125D208C0C114D10419F0F60181922D
:102270006F017A9461F7C114D104B9F0F6011082AC
:1022800014C0F0E2BF2A05C080E1B82A02C090E481
:10229000B92A2B2DA601672DC801C6DD811105C005
:1022A000F8018381807371F40FC0B0FEA394F8012C
:1022B000D380F201D3FCC590D3FEC1902F01C11091
:1022C00014CF02C0AA2019F02A2D30E002C02FEF4F
:1022D0003FEFC9010F90DF91CF911F910F91FF90B8
:1022E000EF90DF90CF90BF90AF909F908F907F90B6
:1022F0005F904F9008950F931F93CF93DF93689F44
:102300008001699F100D789F100D1124C8010FD016
:10231000C82FD92F209729F0A80160E070E08C2FFA
:1023200053D1CE01DF91CF911F910F9108950F935B
:102330001F93CF93DF938230910510F482E090E0F9
:10234000E0915C23F0915D2320E030E0C0E0D0E03C
:1023500023C04081518148175907A8F048175907F1
:1023600061F482819381209719F08A839B832EC028
:1023700080935C2390935D2329C02115310529F0BA
:102380004217530710F0A90102C0BE01DF0102810C
:102390001381EF019A01F8013097D9F62115310523
:1023A00009F1281B390B2430310590F412968D91D8
:1023B0009C9113976115710521F0FB018283938332
:1023C00004C080935C2390935D23FD01329644C04A
:1023D000FD01E20FF31F81939193225031092D9358
:1023E0003C933AC020915A2330915B23232B41F434
:1023F000209102203091032020935A2330935B23B5
:1024000020910020309101202115310541F42DB794
:102410003EB74091042050910520241B350BE091DC
:102420005A23F0915B23E217F307A0F42E1B3F0B16
:102430002817390778F0AC014E5F5F4F2417350736
:1024400048F04E0F5F1F40935A2350935B238193B4
:10245000919302C0E0E0F0E0CF01DF91CF911F91B6
:102460000F910895EF92FF920F931F93CF93DF93F5
:10247000009709F48FC0DC01129712961D921C92EE
:102480001397E0905C23F0905D23E114F10489F44C
:102490002D913C911197280F391F80915A239091CB
:1024A0005B238217930789F5A0935A23B0935B238C
:1024B00071C0E70120E030E001C0EA01CA17DB0784
:1024C00038F44A815B819E0141155105B1F722C064
:1024D000BC0162507109FB01C283D3830081118169
:1024E000AC01400F511F4C175D0761F448815981C1
:1024F000400F511F4E5F5F4F408351834A815B8184
:10250000428353832115310529F4A0935C23B093B2
:102510005D2340C0F901A283B383E90169917991F8
:10252000C60FD71FAC17BD0779F4DC015E914E9141
:10253000460F571F4E5F5F4F4083518312968D9118
:102540009C91139782839383A0E0B0E002C0D701EF
:102550007C01F701828193810097C9F7C701029638
:1025600020813181820F931F20915A2330915B2368
:102570002817390779F4109729F410925C231092E8
:102580005D2304C012961D921C921397E0925A2369
:10259000F0925B23DF91CF911F910F91FF90EF900D
:1025A000089591119FC0803219F089508550D0F75D
:1025B0000895FC010590061621F00020D9F7C0010E
:1025C00008953197CF010895DC0101C06D9341500A
:1025D0005040E0F70895CF93DF93EC013B8130FF4B
:1025E00034C036FF0AC03F7B3B838E819F810196BA
:1025F0008E839F832A8130E02AC032FF0FC0E8819A
:10260000F9818081992787FD9095009719F43062B0
:102610003B831BC03196E883F9830EC0EA85FB85B6
:10262000099597FF09C02B81019611F480E101C043
:1026300080E2822B8B8309C02E813F812F5F3F4F29
:102640002E833F839C01332702C02FEF3FEFC90148
:10265000DF91CF9108950F931F93CF93DF938C0158
:10266000EB018B8181FD03C00FEF1FEF1AC082FFCA
:102670000DC02E813F818C819D812817390764F41C
:10268000E881F9810193E883F98306C0E885F9853B
:10269000802F0995892B41F78E819F8101968E832A
:1026A0009F83C801DF91CF911F910F910895FB0186
:1026B000238120FF13C026FD11C08F3F3FEF9307FA
:1026C00069F082832F7D2064238326813781215006
:1026D0003109268337839C01332702C02FEF3FEF58
:0E26E000C9010895992788270895F894FFCF1F
:1026EE0000005E2320000E038B01950197016C0202
:1026FE004D0185019A01970100006A201E202620B7
:10270E0022201020062009024300020100C03209D7
:10271E00040000010202010005240010010424023D
:10272E00020524060001052401030107058203406A
:10273E00001009040100020A000000070581024092
:10274E000000070502024000000012010002020014
:10275E000040EB03042400010102000104030904FC
:10276E004F79737465696E005553422D444D582D43
:10277E004B6F6E74726F6C6C65720000000300001C
:10278E00000000000000000000000000000000003B
:10279E00000000000000000000000000000000002B
:1027AE000000100020004000800000010002FF0326
:0427BE00256300008F
:00000001FF
