:10000000FDC000001AC1000018C1000016C10000A8
:1000100014C1000012C100009CC10000C2C1000058
:10002000E8C100000EC2000008C1000006C10000C7
:1000300004C1000002C1000000C10000FEC00000B9
:10004000FCC00000FAC00000F8C00000F6C00000CC
:10005000F4C00000F2C00000F0C00000EEC00000DC
:10006000ECC00000EAC00000E8C00000E6C00000EC
:10007000E4C00000E2C000000C942210DEC00000CA
:10008000DCC00000DAC00000D8C00000D6C000000C
:10009000D4C00000D2C00000D0C00000CEC000001C
:1000A000CCC00000CAC00000C8C00000C6C000002C
:1000B000C4C00000C2C00000C0C00000BEC000003C
:1000C000BCC00000BAC00000B8C00000B6C000004C
:1000D000B4C00000B2C00000B0C00000AEC000005C
:1000E000ACC00000AAC00000A8C00000A6C000006C
:1000F000A4C00000A2C00000A0C000009EC000007C
:100100009CC000009AC0000098C0000096C000008B
:1001100094C0000092C0000090C000008EC000009B
:100120008CC000008AC0000088C0000086C00000AB
:1001300084C0000082C0000080C000007EC00000BB
:100140007CC000007AC0000078C0000076C00000CB
:1001500074C0000072C0000070C000006EC00000DB
:100160006CC000006AC0000068C0000066C00000EB
:1001700064C0000062C0000060C000005EC00000FB
:100180005CC000005AC0000058C0000056C000000B
:1001900054C0000052C0000050C000004EC000001B
:1001A0004CC000004AC0000048C0000046C000002B
:1001B00044C0000042C0000040C000003EC000003B
:1001C0003CC000003AC0000038C0000036C000004B
:1001D00034C0000032C0000030C000002EC000005B
:1001E0002CC000002AC0000028C0000026C000006B
:1001F00024C000000C94870D0C943D0E11241FBEEA
:10020000CFEFCDBFDFE2DEBF10E2A0E0B0E2EEE074
:10021000F1E200E00BBF02C007900D92AA3FB107C8
:10022000D9F725E2ACEFB0E201C01D92AE38B207BB
:10023000E1F70E94F80F0C948510E2CE08950F9319
:100240001F93CF93DF93282F30E0F901719644E09C
:10025000EE0FFF1F4A95E1F760910401A0910301A1
:10026000A9014C5F5F4FC1E0D0E08E01042E01C0B8
:10027000000F0A94EAF7082E01C0CC0F0A94EAF79F
:10028000C02BAC23B0E08D01042E02C0159507955C
:100290000A94E2F700FD1DC0082E02C0B595A7958F
:1002A0000A94E2F7A0FD18C0C6236C2F70E0DB01B2
:1002B00002C0B595A7954A95E2F7A0FD10C0AB0125
:1002C00002C0559547958A95E2F7CA018170992732
:1002D00008C084E090E005C083E090E002C082E0C6
:1002E00090E0418140634183F901EE0FFF1FEC591B
:1002F000FC4D0190F081E02D309729F0DF91CF91F6
:100300001F910F910994DF91CF911F910F91089543
:1003100061E080E090E067D180916D238F3F09F428
:10032000FFCF9FB7F89480916D238F5F80936D23EB
:100330009FBF80E48093000180E8809300010895CE
:10034000E82FF0E0EE0FFF1FEC59FC4D6083718346
:1003500008951F920F920FB60F9211240BB60F92B1
:100360002F933F934F935F936F937F938F939F93BD
:10037000AF93BF93EF93FF9380E061DFFF91EF9125
:10038000BF91AF919F918F917F916F915F914F91AD
:100390003F912F910F900BBE0F900FBE0F901F90AB
:1003A00018951F920F920FB60F9211240BB60F9251
:1003B0002F933F934F935F936F937F938F939F936D
:1003C000AF93BF93EF93FF9381E039DFFF91EF91FC
:1003D000BF91AF919F918F917F916F915F914F915D
:1003E0003F912F910F900BBE0F900FBE0F901F905B
:1003F00018951F920F920FB60F9211240BB60F9201
:100400002F933F934F935F936F937F938F939F931C
:10041000AF93BF93EF93FF9382E011DFFF91EF91D2
:10042000BF91AF919F918F917F916F915F914F910C
:100430003F912F910F900BBE0F900FBE0F901F900A
:1004400018951F920F920FB60F9211240BB60F92B0
:100450002F933F934F935F936F937F938F939F93CC
:10046000AF93BF93EF93FF9383E0E9DEFF91EF91AA
:10047000BF91AF919F918F917F916F915F914F91BC
:100480003F912F910F900BBE0F900FBE0F901F90BA
:100490001895DB01E82FF0E0719664E0EE0FFF1F86
:1004A0006A95E1F72FB7F89419968C91199784877C
:1004B0001A968C911A978587168617968C9117979E
:1004C000808718968C9118978187128612968C9146
:1004D0001297828313968C911397838314968D9130
:1004E0009C9115978483958316968C911697868395
:1004F00011968C91119781838C918F7780832FBF78
:1005000008959FB7F894E0E5F0E02081822B808386
:100510009FBF08959FB7F894A0E5B0E016968C9120
:100520001697897F16968C931697E0E6F0E080E8A0
:1005300085838BEB868316968C911697846016962E
:100540008C938081816080839FBF0895CF93DF93D8
:1005500000D000D0CDB7DEB78FEF809370008093CE
:100560007100809372008093730080937400809375
:1005700075008093760064E081E490E025D66CE11C
:1005800070E082E027D68C836DE170E082E022D6B5
:100590008B838B819C81019621F480E493E28B8391
:1005A0009C838B819C8189839A83809362008A815A
:1005B0008093630082E0A5DF8091510081FFFCCF32
:1005C000A9DF61E080E490E0FFD59FB7F8948091C7
:1005D00050008E7F809350009FBF2496CDBFDEBF1A
:1005E000DF91CF9108952FB7F894FC01E059FF4FA8
:1005F00060958081862380832FBF0895CF938630B6
:1006000011F4C8E101C0C0E08091510081FD07C034
:1006100082E077DF8091510081FFFCCF7BDF6C2F80
:10062000636084E490E0D0D560E480E090E0CF9116
:10063000DACF1092122210921E2210921F2281EA0B
:100640008093142280E28093152210921622109239
:100650001722109218221092192282E090E08093C3
:100660001A2290931B2210921C2210921D2280E0CD
:1006700090E1AEE0B0E08093202290932122A093FD
:100680002222B0932322109224221092252288E065
:1006900080932622809112228F5F8093122281E024
:1006A00008958091122281508093122208958091A2
:1006B00011228150809311228091112210921022D8
:1006C000089580E0089580E0089508959091722340
:1006D000892F807697FF0EC0803271F58091732349
:1006E000813251F58091782390917923873091055B
:1006F00019F516C0803201F580917323803219F00C
:100700008232D1F417C08091782390917923873079
:10071000910591F425E633E020937E2330937F23E7
:1007200020E232E220937A2330937B2380937C2350
:1007300090937D2381E0089580E00895FF920F93C8
:100740001F93CF93DF938091FF2081118BC00E9474
:100750002C0CC0910021D09101218823A9F00E9486
:10076000390CC817D90709F47DC0DFB7F894C091D8
:100770000221EC2FF0E0EE0FFF1FED5FFE4D8081B8
:100780009181892B29F503C00E94340CEACF809116
:10079000FC209091FD2001968093FC209093FD20F9
:1007A0000E942C0C811109C08091FC209091FD20A9
:1007B0008436910510F4DFBF55C00E942C0C8823AD
:1007C00039F08091FC209091FD208032934098F385
:1007D0001092FC201092FD208091FE20811106C015
:1007E00081E0C11180E08093022104C081E0C11149
:1007F00080E0C82F81E08093FF20DFBFD0E08E0132
:10080000000F111FF801ED5FFE4DFF24F39480816E
:1008100091818034910531F4F12C109200211092D5
:1008200001210DC00E942C0C882319F00E94390C64
:1008300002C00E94340C8093002190930121F801A2
:10084000ED5FFE4D20813181AE0186E0440F551FE2
:100850008A95E1F7485F5E4D09E314E06F2D81E86A
:100860000E94C00CDF91CF911F910F91FF900895CE
:1008700065CF892B99F480910221E1E0F0E0882393
:1008800011F0E0E0F0E0EE0FFF1FED5FFE4D108293
:1008900011821092FE201092FF2050CF08954FB782
:1008A000F8942091892130918A21E0918B21F0E008
:1008B000EE0FFF1FE457FE4D80819181821B930B49
:1008C0004FBF089580E0EBCFEADF21E0892B09F4E8
:1008D00020E0822F08950F931F93CF93DF934FB79C
:1008E000F89450918B2180918821811110C0209122
:1008F000892130918A21C52FD0E0FE01EE0FFF1F24
:10090000E457FE4D808191812817390718F44FBFB5
:1009100080E024C01092892110928A2181E0511137
:1009200080E080938B2181E0809388214FBF80E01D
:10093000CBDF882319F080E00E94200FAE0166E033
:10094000440F551F6A95E1F740575E4D03EE14E0E2
:1009500020E430E061E082E00E94C00CDF91CF91A2
:100960001F910F910895109211221092FF20109262
:10097000FE20109202211092032110920421109265
:100980000521109206211092002110920121D6DE3D
:100990001092882110928B2110928C2110928D211F
:1009A0001092892110928A2196DF882359F0909124
:1009B00011229F5F9093112290911122913011F496
:1009C0009093102208950F931F93A42F892B21F544
:1009D00080918B21E1E08111E0E0F0E0611571058B
:1009E00081F4AF01B6E0440F551FBA95E1F74057C7
:1009F0005E4D03EE14E020E430E061E08A2FC0D7C2
:100A00000BC0EE0FFF1FE457FE4D60837183109201
:100A100088211F910F915FCF1F910F91089580E062
:100A200053CFEF92FF920F931F93CF93DF937B01EE
:100A3000EA012FB7F8948091892190918A216091E1
:100A40008B212FBF70E0FB01EE0FFF1FE457FE4D1F
:100A5000208131818217930730F08091102281111B
:100A6000E8CFCE0128C0281B390B8E012C173D077B
:100A700008F4890146E0660F771F4A95E1F7680F91
:100A8000791F60577E4DA801C7010E947C1080919C
:100A9000892190918A21800F911F809389219093C1
:100AA0008A21E00EF11EC01BD10B15DF209709F043
:100AB000C0CF80E090E0DF91CF911F910F91FF9028
:100AC000EF900895AB01BC0180E0ABCF809174231F
:100AD0008F77C4C690912E22992361F1E0912C2248
:100AE000F0912D220190F081E02D9481891710F56D
:100AF000E0932A22F0932B22228133812E0F3F1F75
:100B0000E217F30798F49181943061F4928189138C
:100B100009C09381691306C0E0932A22F0932B2227
:100B200081E008959081E90FF11DEACFE0932A2238
:100B3000F0932B2280E00895E0912C22F0912D2259
:100B40000190F081E02D228133812E0F3F1FFC01A7
:100B50004081E40FF11DE217F30748F481818430EE
:100B600031F0853039F08081E80FF11DF4CF80E05D
:100B700090E00895CF0108951F93CF93DF93182F2E
:100B8000A9DF882339F1C0912A22D0912B22CE01EE
:100B9000D3DFEC01009741F04C815D816B818A814C
:100BA00074D68111F4CF16C0E0912C22F0912D2241
:100BB00092818381E92FF82FE10FF11DE10FF11DE3
:100BC0000190F081E02D0190F081E02DDF91CF9137
:100BD0001F91099480E0DF91CF911F910895FF92BA
:100BE0000F931F93CF93DF93C82F60E073DFF82E2E
:100BF000882361F1E0912C22F0912D229281838152
:100C0000E92FF82FEC0FF11DEC0FF11D0081118180
:100C1000D8011696ED91FC9117970995682F8C2FA6
:100C200059DFF82E882391F0C0912A22D0912B22EF
:100C3000CE0182DFEC01009719F08A814FD7F8CFFF
:100C4000D8011296ED91FC91139709958F2DDF91A4
:100C5000CF911F910F91FF90089591C5CF938091EF
:100C60002E2281110AC010922E2281E090E0809302
:100C7000322290933322CF910895C0E0E0912C224C
:100C8000F0912D220190F081E02D8481C81758F752
:100C90008C2FA5DFCF5FF2CFCF9380912E228823B8
:100CA000F1F0C0E0E0912C22F0912D22A081B181E1
:100CB00014968C91C81798F492818381E92FF82FAC
:100CC000EC0FF11DEC0FF11D0190F081E02D00847F
:100CD000F185E02D309709F00995CF5FE3CFCF91F3
:100CE0000895CF92DF92FF920F931F93CF93DF93DC
:100CF0001F92CDB7DEB710927C2310927D23109205
:100D00007E2310927F2310928023109281232091C2
:100D1000722327FF07C08091782390917923892B34
:100D200009F448C2822F807609F0D1C127FFFFC0A5
:100D30008091782390917923009709F4C8C12F718D
:100D400009F09FC020917323263069F0283009F400
:100D500090C02111BCC1029709F0B9C162E070E0F6
:100D600082E392E2E2C02091742330917523832FB5
:100D700099278230910591F05CF4019709F0A7C1A1
:100D80008091142090911520DC016C9170E05FC07F
:100D90008330910581F10F9709F199C1E0911420F9
:100DA000F09115208189281708F091C13327220F6F
:100DB000331F220F331FE0911620F0911720E20F0E
:100DC000F31F80819181FC016281738155D5E0918F
:100DD0007A23F0917B2382E081833AC080911820AE
:100DE00090911920009709F472C1DC0112966D915F
:100DF0007C9113972CC0C90199278130910541F04E
:100E000058F08230910569F0039709F4CFC15FC1B2
:100E10006EE08FE990E208C064E070E08EEA90E254
:100E200016C068E086E990E2282FAAE7B0E2FC014C
:100E3000819190E08D939D938E2F821B8617C0F336
:100E4000660F6E5F6093782070E088E790E214D5BB
:100E5000809178239091792320917C2330917D2378
:100E60008217930708F031C180937C2390937D23F0
:100E70002CC1019709F02BC161E070E08EE292E293
:100E800054C02130E1F5209173232A3009F01FC1AD
:100E9000019709F01CC180912E22882309F417C103
:100EA000C0907623D090772300912C2210912D2290
:100EB000D801ED91FC918481C81608F008C160E06A
:100EC0008C2D08DEF82E882309F401C1DD24CC0C1A
:100ED000DD1CD8011296ED91FC911397EC0DFD1DD0
:100EE0000190F081E02D0680F781E02D0995809337
:100EF000302261E070E080E392E2BED4E4C02230B0
:100F000009F0E5C0209173232111E1C0029709F097
:100F1000DEC08091762314D590E0809328229093B0
:100F2000292262E070E088E292E2A6D4CEC02F715E
:100F300009F07DC080917323833009F4C8C018F490
:100F40008130A1F0C4C0853019F0893039F1BFC0BB
:100F50008091782390917923892B09F0B8C086E697
:100F600095E080937E2390937F23AFC08091782378
:100F700090917923892B09F0AAC0809174239091D4
:100F80007523019709F0A3C08091322290913322FA
:100F90008D7F809332229093332297C08091782363
:100FA00090917923892B09F092C05BD4882309F4AE
:100FB0008EC080917423909175239927E09114201D
:100FC000F0911520218930E02817390708F47FC0F7
:100FD00045DE209174233091752320932E22222305
:100FE00009F473C033272150304C220F331F220FD6
:100FF000331F8091162090911720820F931F8093AA
:101000002C2290932D2210E0E0912C22F0912D22A1
:101010000190F081E02D8481181708F056C060E03F
:10102000812FAADD882309F452C01F5FEDCF213044
:10103000F1F4809173238B3009F049C080917823BB
:1010400090917923892B09F042C080912E22882328
:1010500009F43DC01091762360917423812F698338
:10106000BEDD6981882399F1812F86DD2BC0223076
:1010700071F580917323813019F0833089F027C096
:101080008091782390917923892B09F5809174239D
:1010900090917523892BD9F48091762358D412C06E
:1010A0008091782390917923892B89F480917423FE
:1010B00090917523892B59F480917623E3D4809104
:1010C000762315D5F82EFF2011F081E074C08091B1
:1010D00072238F718130B9F580912E22882399F186
:1010E000C0907623D090772300912C2210912D224E
:1010F000D801ED91FC918481C81628F560E08C2D13
:10110000E9DC882301F1C6019927880F991FD801CE
:101110001296ED91FC911397E80FF91F0081118150
:10112000D8011696ED91FC9117970995682F8C2D93
:10113000D1DC882341F0D8011496ED91FC911597EC
:1011400009958111C2CF809172238F71823091F500
:1011500080912E22882371F110E0E0912C22F091F1
:101160002D22A081B18114968C91181718F59281C7
:101170008381E92FF82FE10FF11DE10FF11DC080F0
:10118000D180D6011696ED91FC9117970995682F9D
:10119000812FA0DC882371F0D6011496ED91FC918B
:1011A00015970995811191CF1F5FD7CF61E084EB2F
:1011B00090E23ACE80E00F90DF91CF911F910F9196
:1011C000FF90DF90CF9008951BBEFC0128ED24BF57
:1011D000608308954091CA01E62FF72F8093CA01DA
:1011E00084914093CA010895FC01E459FC4D80812B
:1011F0008F3F09F4FFCF9FB7F89480818F5F808382
:101200009FBF0895FC01E459FC4D8081811101C00C
:10121000FFCF9FB7F8948081815080839FBF08954E
:10122000CF93C82F80916023C11106C0882349F055
:1012300081E090E0E7DF05C0811103C081E090E02C
:10124000D3DFC0936023CF910895282F2F70992763
:1012500087FD90958827990F881F9927820F911DE8
:10126000820F911D43E0880F991F4A95E1F7845D35
:101270009C4D08950F93E8ECF4E080818F7D80838E
:1012800080818F7D8083E4E3F3E202E00593109296
:1012900036231092372300E2069300E40693ECE233
:1012A000F3E200E2069300E4069310927E2310928C
:1012B0007F23109280231092812310927C2310921E
:1012C0007D2310921D2310921E230F9108950F93DA
:1012D00085E090E080931D2390931E23E5E3F3E2E5
:1012E00004E00593EDE2F3E204E005930F91089525
:1012F0000F9383E090E080931D2390931E23109220
:10130000362310923723E4E3F3E202E006930F91D1
:101310000895E0917E23F0917F23309709F009949E
:101320000895982F9F70282F332727FD3095222767
:10133000330F221F3327290F311D290F311D225052
:10134000310949E0429FC001439F900D11248B5405
:101350009D4D08958F929F92BF92CF92DF92EF9210
:10136000FF920F931F93CF93DF93B82EDADFEC0138
:101370008B2D6BDF7C01DC011196EC91E770E15065
:10138000E73040F4F0E0EE0FFF1FEA54FF4D00811C
:10139000118102C008E010E0ED81FE818B819C810B
:1013A0004881D701B7FE4FC016962D913C911797F3
:1013B0002E0F3F1F2D833E832817390799F1FC011B
:1013C000E21BF30B9F012115F4E03F0738F02FEFEC
:1013D00033E0C901B8017CD6281B390B41FF09C095
:1013E000C901B80175D641E0892B09F040E0942F7E
:1013F00001C090E0888190FB81F98883D70116961F
:101400001D921C92179712962D933C9313978981E6
:101410009A812D813E81820F931F14968D939C9308
:1014200015970DC041FF70C04D7F4883D7011696B8
:101430001D921C92179712961D921C921397F701FA
:1014400002E006937BC01296CD90DC90139742FF8A
:101450000FC089809A80B8013BD6B0E4BB9EB00132
:1014600011246B507E4DAC01C4018E0F9F1F44D6DA
:101470006D817E816C0D7D1D6D837E832B813C8112
:101480002617370710F42D833E83F7018681978155
:10149000C816D906C9F58D819E8182179307A1F1DF
:1014A000281B390B2115F4E03F0710F02FEF33E034
:1014B000C901B8010DD6281B390BD70112961D9210
:1014C0001C9213972017310778F4888184608883F1
:1014D000B0E4BB9EC00111248B509E4DF701848364
:1014E000958306831783ABCF89819A814D815E8175
:1014F000840F951FD70114968D939C93159716967C
:101500002D933C9317979BCF888180FF17C08E7FC8
:101510008883EF81F885309789F06D817E814B2D2E
:1015200080E090E0DF91CF911F910F91FF90EF90BD
:10153000DF90CF90BF909F908F900994DF91CF91D3
:101540001F910F91FF90EF90DF90CF90BF909F90F1
:101550008F9008950F93CF93DF9380911D239091E7
:101560001E23039729F4D5DEDF91CF910F9182CE10
:101570002091192330911A23C0917C23D0917D238F
:10158000C21BD30B79F580911B2390911C23820FF2
:10159000931F80931B2390931C23209178233091D9
:1015A00079232817390721F080913422882349F0C4
:1015B00084E090E080931D2390931E23ECE2F3E2FD
:1015C00036C0E0918023F0918123309799F00995FE
:1015D000882381F01092192310921A23C0917C2342
:1015E000D0917D23C034D10528F010923422C0E47C
:1015F000D0E003C081E080933422C0933623D0939F
:1016000037232091192330911A2380917A239091C6
:101610007B23820F931F8093382390933923C20F2B
:10162000D31FC0931923D0931A23E4E3F3E202E01B
:101630000693DF91CF910F9108950F93CF93DF938E
:101640001F92CDB7DEB78091CC0480FF6DC081E0E2
:101650008093CC04ECE2F3E200E80693E4E3F3E2E7
:1016600000E806938093CA04ECE2F3E200E10693FB
:1016700080911D2390911E23009729F003970297D4
:1016800008F447DEF7DD80912E2390912F230897F1
:1016900009F04CC088E0E9EDF2E2A2E7B3E2019084
:1016A0000D928A95E1F78091C80480628093C80406
:1016B0008091C80480628093C80413DB811102C04A
:1016C00006DE34C09091722397FF11C010921B2345
:1016D00010921C231092192310921A2322E030E05A
:1016E00020931D2330931E23898334DF08C020916B
:1016F000782330917923232B21F48983F9DD8981A3
:1017000016C010921B2310921C23109219231092C2
:101710001A2321E030E020931D2330931E23ECE2B6
:10172000F3E202E0069303C080E001C081E00F9085
:10173000DF91CF910F910895CF93CFB7F89481E0C7
:101740006FDDEAECF4E080E4808380E28083E1EC0A
:10175000F4E0808181608083A9ECB4E08C918260A8
:101760008C93E8ECF4E08081806480838C918160CC
:101770008C93808180688083CFBFCF910895CF9371
:101780001092600080E30E94FE028091C004806499
:101790008093C00481E080936000CFB7F8941092EA
:1017A0002D231092352310923D2310924523109241
:1017B0004D23109255238091B5228E7F8093B522C0
:1017C0008091BE228E7F8093BE228091C7228E7F21
:1017D0008093C7228091D0228E7F8093D0226AE1AD
:1017E00070E082E0F7DC8F3F09F48FE18093FA0428
:1017F0006BE170E082E0EEDC8F3F09F48FE18093D3
:10180000FB048091C00482608093C0048091C00476
:1018100080688093C0048091C00480618093C0047C
:101820008CE293E28093C6049093C7048091C00435
:1018300080628093C0048FEF8093C5048091C804B8
:1018400081608093C8041092602385E090E0CCDC36
:1018500073DFCFBFCF91089580E008958093C304D4
:1018600008958091C304089580915C2390915D2335
:10187000089580E090E0089580937A2390937B23ED
:1018800060937C2370937D2308950F931F93CF93D0
:10189000DF931F92CDB7DEB78A016983D6DCFC01E6
:1018A0008181807C6981811142C06370613029F03F
:1018B00010F490E403C090E801C090EC00381105EA
:1018C000E1F050F400321105A1F00034110599F057
:1018D0000031110561F419C0011582E0180789F083
:1018E0000F3FA3E01A0779F00115114041F080E0A5
:1018F0000DC082E00BC083E009C084E007C085E032
:1019000005C086E003C087E001C081E0118226E0C7
:101910002083892B81838181807C803C21F481819B
:101920008770873031F081818062818302C080E0DE
:1019300001C081E00F90DF91CF911F910F91089529
:1019400084DCFC01818182FB882780F90895CF9394
:10195000C82F7BDCFC01818182FF0FC091819B7FBE
:1019600091838C2FDEDCFC01808180FF06C08E7F9E
:1019700080830780F085E02D099581E0CF9108955F
:101980008F929F92BF92CF92DF92EF92FF920F932E
:101990001F93CF93DF931F92CDB7DEB7B82E6A01A6
:1019A00079016983BEDC4C018B2D4FDCFC01818108
:1019B000807C6981882309F457C08181807C803CC8
:1019C00019F0818182FD50C08FB7F894D4019C91A9
:1019D00090FF02C08FBF48C09160D4019C938FBF1D
:1019E000D4011196CD92DC9212971396ED92FC924F
:1019F000149715961D921C92169717960D931C938B
:101A0000189791E0611104C0E114F10409F090E02D
:101A1000D4018C9190FB81F98B7F8C93B7FC1EC015
:101A20008181807C803CC1F4A181A770A150A73046
:101A300040F4B0E0AA0FBB1FAA54BF4D6D917C913A
:101A400002C068E070E0C70143D3892B29F0F4019C
:101A500080818E7F808308C0128213821682178253
:101A60008B2D78DC81E001C080E00F90DF91CF9179
:101A70001F910F91FF90EF90DF90CF90BF909F90BC
:101A80008F9008950F931F93CF93DF93182FDDDB73
:101A9000EC01812F46DCDC01FE0102E005938C9114
:101AA00080FF17C08E7F8C931796ED91FC9118974D
:101AB000309779F017FF03C06E817F8102C06A8181
:101AC0007B81412F81E090E0DF91CF911F910F91B9
:101AD0000994DF91CF911F910F910895CF93C82F53
:101AE000D1DF8C2FB2DBFC011182CF9108950F93CF
:101AF000CF93C82FAADBFC0191819460918301E010
:101B000006938C2FBFDF81E0CF910F9108951F9234
:101B10000F920FB60F9211240BB60F920F932F93C3
:101B20003F934F935F936F937F938F939F93AF9365
:101B3000BF93EF93FF938091CB0487FF05C080E8AC
:101B40008093CA04A9D885C08091CB0482FF1BC0B2
:101B500084E08093CA048091342386FF7AC0809108
:101B6000CC0481FD76C069DD811173C080911D2395
:101B700090911E238130910511F4BADB6AC004975D
:101B800009F067C027C08091CB0481FF2CC082E0A0
:101B90008093CA0480912C2386FF5BC08091CC0483
:101BA00081FD57C04ADD811154C080911D23909161
:101BB0001E238230910559F484E090E080931D2328
:101BC00090931E23ECE2F3E202E0069342C00397F7
:101BD00009F03FC0E5E3F3E204E00593EDE2F3E250
:101BE00004E0059336C08091CB0484FF20C080E1DF
:101BF0008093CA0481E046DF81E844DF2FD8109249
:101C0000C30410922D2396E090932C2383E48093B9
:101C10002D2310923523909334238093352389ED1F
:101C200092E2809330239093312324DB12C0809181
:101C3000CB0486FF05C080E48093CA0480E008C01E
:101C40008091CB0485FF05C080E28093CA0481E0C7
:101C5000E7DAFF91EF91BF91AF919F918F917F91C3
:101C60006F915F914F913F912F910F910F900BBE0C
:101C70000F900FBE0F901F9018951F920F920FB6E6
:101C80000F9211240BB60F920F931F932F933F9334
:101C90004F935F936F937F938F939F93AF93BF9374
:101CA000CF93DF93EF93FF938091CC0481FF1AC011
:101CB00082E08093CC048091C504ECE2F3E281954C
:101CC000880FE81BF109208131812C523342E3E077
:101CD00036952795EA95E1F7C22FC69520FF06C0F5
:101CE00080E805C0AADC882319F388C080E0C80F0B
:101CF0008C2FABDAFC01808185FF80C000E2069367
:101D0000C11176C080911D2390911E23049719F470
:101D100000DBB0DA73C0C0912E23D0912F238091C5
:101D20007C2390917D230091192310911A2398010F
:101D30002C0F3D1F8217930718F4EC01C01BD10B29
:101D400080917A2390917B23AE0169ED72E2800F3E
:101D5000911FD2D10C0F1D1F0093192310931A232A
:101D6000C034D10569F480911B2390911C23800F0E
:101D7000911F20917823309179238217930788F05F
:101D800000937C2310937D23E0918023F0918123A5
:101D9000309729F00995811102C099DA2FC0A8DA8D
:101DA0002DC080917C2390917D2380179107D9F4D9
:101DB000E0918023F0918123309779F3099588236E
:101DC00061F380911B2390911C2320911923309162
:101DD0001A23820F931F80931B2390931C2310922E
:101DE000192310921A23ECE2F3E202E0069306C0F4
:101DF000C03811F4AFDB02C08C2FACDAFF91EF9149
:101E0000DF91CF91BF91AF919F918F917F916F9112
:101E10005F914F913F912F911F910F910F900BBEAA
:101E20000F900FBE0F901F9018958153863330F49A
:101E3000E82FF0E0EC53FF4D8081089580E0089595
:101E4000BF92CF92DF92EF92FF920F931F93CF93A7
:101E5000DF93CDB7DEB7C054D109CDBFDEBF0E943E
:101E60000F05882309F445C00E9462047C01813279
:101E7000910518F090E2E92EF12CB701CE01019600
:101E80000E94620500916223109163239091B22019
:101E9000B0906123FE0131966F01EE0EFF1ECE144D
:101EA000DF04F1F0F60181916F018A30A9F08D30E5
:101EB00099F091110AC0B9DFF801EE57FC4D8B295A
:101EC00081830F5F1F4F91E0EACFAFDFB82EB2944E
:101ED00080EFB82290E0E3CF91E000E010E0DFCFA8
:101EE00000936223109363239093B220B0926123F6
:101EF000B6CFC05CDF4FCDBFDEBFDF91CF911F916A
:101F00000F91FF90EF90DF90CF90BF900895CF9307
:101F1000DF93E0E4F6E08481806884838081806BD5
:101F20008083A0EBB8E085E016968C931697179601
:101F30001C92179715968C9115978B6015968C931C
:101F4000159714968C911497886014968C93149717
:101F5000848180628483848180618483E3E8F5E204
:101F60008BE0EF0119928A95E9F784E0808381E0A4
:101F700092E0848395838CED828382E893E2878369
:101F80009087A187B2878FE483838FE081830E944B
:101F900088019FB7F894E0E0F1E080818C7F816058
:101FA00080839FBFE0EAF0E082818460828378943E
:101FB000DF91CF9108958AE08093B3208091B1089A
:101FC00086FFFCCF8091B10880648093B10889E1DD
:101FD0008093B6081092B7088091B10885FFFCCFB6
:101FE0008091B3088C608093B3081092B008089574
:101FF00087E08093A20078940E94A6020E941E01AE
:1020000060E283E090E00E94F30281DF109282237D
:102010000E942D068091B10885FFFCCF1092B00878
:10202000E3E8F3E2119285E2E338F807D9F7C3DF7A
:10203000FFCF88E08093B32060E070E080E00E94F2
:10204000A001B9CF1F920F920FB60F9211240BB6B9
:102050000F922F933F934F935F936F937F938F9341
:102060009F93AF93BF93EF93FF93E0EBF8E08381EF
:10207000837F83838CE08093B320178285E08683FF
:1020800063E875E280E00E94490269E170E180E066
:102090000E94A0019FB7F894E0E1F1E080818068A0
:1020A00080839FBF8EE08093B320FF91EF91BF911B
:1020B000AF919F918F917F916F915F914F913F91E0
:1020C0002F910F900BBE0F900FBE0F901F90189581
:1020D000AA1BBB1B51E107C0AA1FBB1FA617B7074E
:1020E00010F0A61BB70B881F991F5A95A9F780956A
:1020F0009095BC01CD010895FB01DC0102C0019067
:0E2100000D9241505040D8F70895F894FFCF4B
:10210E00B3045703610363033804190351036603D1
:10211E006303000066201A20000022201E200A20E1
:10212E00002009024300020100C032090400000130
:10213E0002020100052400100104240202052406F7
:10214E000001052401030107058203400010090464
:10215E000100020A00000007058102400000070589
:10216E000202400000001201000202000040EB03D8
:10217E00042400010102030100030000000000001E
:10218E000000000000000000000000000000000041
:10219E000000000000005553422D3E444D58004FA4
:1021AE006D656761205665726B7374656400040318
:1021BE0009040108300010002000400080000001DA
:1021CE000002FF03010203040506070809000000D0
:1021DE00000000000A0B0C0D0E0F000000000000A6
:1021EE0000000000000000000000000000000000E1
:0A21FE00000000000A0B0C0D0E0F8C
:00000001FF
