S0160000444D582D4B6F6E74726F6C6C65722E73726563CC
S1130000FDC000001AC1000018C1000016C10000A4
S113001014C1000012C1000010C100000EC1000094
S11300200CC100000AC1000008C1000006C10000A4
S113003004C1000002C1000000C10000FEC00000B5
S1130040FCC00000FAC00000F8C00000F6C00000C8
S1130050F4C00000F2C00000F0C00000EEC00000D8
S1130060ECC00000EAC00000E8C00000E6C00000E8
S1130070E4C00000E2C00000E0C00000DEC00000F8
S1130080DCC00000DAC00000D8C00000D6C0000008
S1130090D4C00000D2C00000D0C00000CEC0000018
S11300A0CCC00000CAC00000C8C00000C6C0000028
S11300B0C4C00000C2C00000C0C00000BEC0000038
S11300C0BCC00000BAC00000B8C00000B6C0000048
S11300D0B4C00000B2C00000B0C00000AEC0000058
S11300E0ACC00000AAC00000A8C00000A6C0000068
S11300F0A4C00000A2C00000A0C000009EC0000078
S11301009CC000009AC0000098C0000096C0000087
S113011094C0000092C0000090C000008EC0000097
S11301208CC000008AC0000088C0000086C00000A7
S113013084C0000082C0000080C000007EC00000B7
S11301407CC000007AC0000078C0000076C00000C7
S113015074C0000072C0000070C000006EC00000D7
S11301606CC000006AC0000068C0000066C00000E7
S113017064C0000062C0000060C000005EC00000F7
S11301805CC000005AC0000058C0000056C0000007
S113019054C0000052C0000050C000004EC0000017
S11301A04CC000004AC0000048C0000046C0000027
S11301B044C0000042C0000040C000003EC0000037
S11301C03CC000003AC0000038C0000036C0000047
S11301D034C0000032C0000030C000002EC0000057
S11301E02CC000002AC0000028C0000026C0000067
S11301F024C000000C94A70B0C945B0C11241FBEAC
S1130200CFEFDFE2DEBFCDBF10E2A0E0B0E2EEEB65
S1130210FAE100E00BBF02C007900D92A038B107CD
S1130220D9F722E2A0E8B0E201C01D92A63FB207CE
S1130230E1F70E943C0D0C945D0DE2CECF93DF9369
S1130240FC01709620E030E0C62FD0E0DE01022EE3
S113025002C0B595A7950A94E2F7A0FD50832F5FDD
S11302603F4F31962830310589F740FF0AC041FFDE
S113027003C0FC01658302C0FC016683FC01618349
S113028002C0FC016283DF91CF910895109289200E
S113029010928A2010928B2081EA80938C2080E235
S11302A080938D2010928E2010928F201092902097
S11302B01092912082E090E080939220909393207A
S11302C0109294201092952080E092ECA1E0B0E08E
S11302D08093962090939720A0939820B093992090
S11302E010929A2010929B2088E080939C20809109
S11302F089208F5F8093892081E0089580918920EF
S11303008150809389200895809188208150809322
S113031088208091882010928720089580E0089595
S113032080E008958091E6228823DCF48076803290
S1130330E9F58091E7228132D9F58091EC22909100
S1130340ED220797B9F586E990E28093EE22909327
S1130350EF2287E090E08093F0229093F12281E0F5
S113036008958076803241F58091E722803221F031
S1130370823221F581E008958091EC229091ED2262
S11303800797F1F482EE91E08093F2229093F322A6
S113039086E990E28093EE229093EF2287E090E04A
S11303A08093F0229093F12281E0089580E00895F3
S11303B080E0089580E0089580E0089580E0089545
S11303C080E008950895FF920F931F93CF93DF93D6
S11303D08091812081119CC00E948C0A882351F055
S11303E0C091A120D091A2200E949B0AC817D907CE
S11303F059F48EC0C091A120D091A2200E94940AE9
S1130400C817D90709F484C0DFB7F894C0918220D3
S1130410EC2FF0E0EE0FFF1FE356FF4D808191813A
S1130420892B09F58091A7209091A82001968093AB
S1130430A7209093A8200E948C0A811107C0809164
S1130440A7209091A8208436910558F00E948C0A28
S1130450882349F08091A7209091A820803293406E
S113046010F4DFBF55C01092A7201092A8208091ED
S11304708020811106C081E0C11180E08093822038
S113048004C081E0C11180E0C82F81E08093812005
S1130490DFBFD0E0FE01EE0FFF1FE356FF4DFF2448
S11304A0F394808191818034910509F4F12CFF202B
S11304B091F00E948C0A882339F00E949B0A809351
S11304C0A1209093A2200BC00E94940A8093A120A3
S11304D09093A22004C01092A1201092A220FE01A9
S11304E0EE0FFF1FE356FF4D20813181AE01002442
S11304F0569547950794569547950794542F402D44
S113050046555F4D00E912E06F2D81E80E94F00A24
S1130510DF91CF911F910F91FF90089580E053CF09
S1130520892BA9F42091822081E090E0222311F00C
S113053080E090E0FC01EE0FFF1FE356FF4D1082B8
S11305401182109280201092812080E03CCF089587
S11305504FB7F8948091842090918520E091862073
S1130560F0E0EE0FFF1FED55FF4D20813181281B78
S1130570390B4FBF822F932F0895EADF21E0892B97
S113058009F420E0822F08950F931F93CF93DF93F4
S11305904FB7F8945091862080918320811110C028
S11305A02091842030918520C52FD0E0FE01EE0FEC
S11305B0FF1FED55FF4D808191812817390718F4ED
S11305C04FBF80E022C0109284201092852081E0E9
S11305D0511180E08093862081E0809383204FBF77
S11305E080E0CBDFAE0100245695479507945695DD
S11305F047950794542F402D465D5E4D0AE013E065
S113060020E430E061E082E0EBD7DF91CF911F91ED
S11306100F9108950F931F93A42F892B41F5809177
S11306208620E1E08111E0E061157105A9F4F0E0B4
S11306300024F695E7950794F695E7950794FE2F21
S1130640E02DAF01465D5E4D0AE013E020E430E0AA
S113065061E08A2FC5D70BC0F0E0EE0FFF1FED5508
S1130660FF4D608371831092832080E08DDF1F91A2
S11306700F9108951092882010928120109280206A
S11306801092822010929D2010929E2010929F2002
S11306901092A0201092A1201092A22080E093DE5C
S11306A010928320109286201092A3201092A420EE
S11306B0109284201092852080E066DF882361F008
S11306C0809188208F5F809388208091882081305A
S11306D029F480938720089580E0089581E00895A7
S11306E0E091AD21F091AE210190F081E02D2281C5
S11306F033812E0F3F1F822F932F08951F93CF9383
S1130700DF93EC01162FECDF2881FE01E20FF11DCF
S1130710E817F907A0F421812430A1F0211306C0C1
S113072016C02181243089F0211789F02081E20F3D
S1130730F11DE817F907A8F3E0E0F0E008C0E0E0F5
S1130740F0E005C0E0E0F0E002C0E0E0F0E08E2F71
S11307509F2FDF91CF911F9108950F931F93CF93F4
S1130760DF93182F062F8091AC21882369F1E09143
S1130770AD21F091AE21C081D1818C81181730F563
S1130780C093AA21D093AB21ABDF9C01C817D90732
S1130790F8F49981943061F49A81911309C08B81A2
S11307A0801306C0C093AA21D093AB2181E011C06D
S11307B09881C90FD11DC217D30758F3C093AA213A
S11307C0D093AB2180E005C080E003C080E001C08D
S11307D080E0DF91CF911F910F9108958091E822DD
S11307E08F779CC61F93CF93DF93182FB6DF882390
S11307F041F1C091AA21D091AB2165E0CE017EDF09
S1130800EC01009741F04C815D816B818A819FD618
S11308108111F3CF17C0A091AD21B091AE21812FEA
S113082090E0880F991F1296ED91FC911397E80FB1
S1130830F91F0190F081E02D0190F081E02D0995E0
S113084001C080E0DF91CF911F9108950F931F9312
S1130850CF93DF93C82F60E080DF882381F1A091DC
S1130860AD21B091AE21EC2FF0E0EE0FFF1F1296F8
S11308702D913C911397E20FF31F00811181D80150
S11308801696ED91FC9117970995682F8C2F65DFCB
S11308908823B9F0C091AA21D091AB2165E0CE01A3
S11308A02DDFEC01009719F08A8148D7F7CFD801E2
S11308B01296ED91FC911397099581E003C080E0B5
S11308C001C080E0DF91CF911F910F910895CF93E4
S11308D08091AC218823C1F0E091AD21F091AE214B
S11308E00190F081E02D8481882371F0C0E08C2F89
S11308F0ADDFCF5FE091AD21F091AE210190F081A9
S1130900E02D8481C81798F31092AC2181E090E027
S11309108093AF219093B021CF910895CF9380918C
S1130920AC21882341F1E091AD21F091AE21A08169
S1130930B18114968C918823F1F0C0E08C2F90E063
S1130940880F991F0280F381E02DE80FF91F0190B1
S1130950F081E02D0084F185E02D309709F00995B0
S1130960CF5FE091AD21F091AE21A081B1811496C9
S11309708C91C81718F3CF910895FF920F931F938A
S1130980CF93DF931092F0221092F1221092F22270
S11309901092F3221092F4221092F5222091E62272
S11309A022230CF04DC28091EC229091ED2200970D
S11309B009F04BC23DC22F7109F077C03091E72294
S11309C0363081F0383009F465C031116EC00297B9
S11309D039F462E070E08FEA91E2B0D581E0B1C110
S11309E080E0AFC12091E8223091E922832F99273A
S11309F08230910579F08330910561F1019709F016
S1130A0041C080911A2090911B20DC016C9170E010
S1130A1095D527C0E0911A20F0911B2081892817D1
S1130A2098F5C9019927880F991F880F991FE0919C
S1130A301C20F0911D20E80FF91F80819181FC0199
S1130A40628173817BD5E091EE22F091EF2282E006
S1130A50818307C021111AC064E070E08CE790E242
S1130A606DD58091EC229091ED222091F02230916D
S1130A70F1228217930760F48093F0229093F1227D
S1130A8081E05FC180E05DC180E05BC180E059C16D
S1130A9081E057C1019739F461E070E08CEA91E29A
S1130AA04DD581E04EC180E04CC1213009F040C0F9
S1130AB03091E7223A30E1F5019791F58091AC212C
S1130AC0882381F1C091EA22D091EB228C2F0091EE
S1130AD0AD211091AE21D801ED91FC919481C917FB
S1130AE018F560E03ADE882309F1CE019927880FD2
S1130AF0991FD8011296ED91FC911397E80FF91FF5
S1130B000190F081E02D86819781FC010995809305
S1130B10B12161E070E081EB91E210D581E011C177
S1130B2080E00FC180E00DC180E00BC180E009C10D
S1130B30223009F008C12091E7222111FDC002975B
S1130B4071F48091EA222CD58093B2211092B321C2
S1130B5062E070E082EB91E2F1D481E0F2C080E0E7
S1130B60F0C02F7109F092C08091E722833009F41C
S1130B70E5C020F4813009F089C016C0853021F029
S1130B80893009F083C02BC08091EC229091ED2232
S1130B90892B41F48EEE93E08093F2229093F3221A
S1130BA081E0CFC080E0CDC08091EC229091ED2215
S1130BB0892B89F48091E8229091E922019769F4C4
S1130BC08091AF219091B0218D7F8093AF2190933C
S1130BD0B02181E0B6C080E0B4C080E0B2C08091B2
S1130BE0EC229091ED22892B09F044C09AD48823F9
S1130BF009F442C02091E8223091E9223327E091A0
S1130C001A20F0911B20818990E082179307B0F19C
S1130C105EDE8091E8229091E9228093AC218823C2
S1130C2079F199270197880F991F880F991FE091EF
S1130C301C20F0911D20E80FF91FE093AD21F093E3
S1130C40AE210190F081E02D84818823D9F0C0E0A9
S1130C5060E08C2FC7DD8823B9F0CF5FE091AD2130
S1130C60F091AE210190F081E02D8481C81780F3CA
S1130C7081E067C080E065C080E063C080E061C05F
S1130C8081E05FC081E05DC080E05BC0213001F5A0
S1130C908091E7228B30E1F48091EC229091ED2257
S1130CA0892B81F48091AC21882371F0C091EA22D0
S1130CB0D091E8228C2FCADD882341F06D2F8C2F30
S1130CC091DD3FC080E03DC080E03BC080E039C0A2
S1130CD02230C9F58091E722813019F0833081F503
S1130CE014C08091EC229091ED22892B51F48091D3
S1130CF0E8229091E922892B31F48091EA2257D499
S1130D0020C080E01EC080E01CC08091EC22909145
S1130D10ED22892B69F48091E8229091E922892BB4
S1130D2049F4CAEED2E28881D1D48881F7D409C0CB
S1130D3080E007C080E005C080E003C080E001C01F
S1130D4080E0811177C08091E6228F71813071F546
S1130D508091AC21882351F10091EA221091EB2279
S1130D60F02EC091AD21D091AE21E881F98184812A
S1130D700817E0F460E0802FF0DC8823B9F0112735
S1130D809801220F331FEA81FB81E20FF31FC08118
S1130D90D181EE81FF810995682F8F2DDEDC8823B8
S1130DA029F0EC81FD810995811146C08091E622EC
S1130DB08F71823009F042C08091AC21882381F187
S1130DC0E091AD21F091AE21A081B18114968C9176
S1130DD0882341F110E0212F30E0220F331F0280DD
S1130DE0F381E02DE20FF31FC081D181EE81FF81F9
S1130DF00995682F812FB1DC8823B1F0EC81FD8146
S1130E000995811113C01F5FE091AD21F091AE21CE
S1130E10A081B18114968C911817E8F280E01AC071
S1130E2080E018C080E016C080E014C081E012C0E9
S1130E3080E010C081E00EC081E00CC080E00AC0F8
S1130E40822F807609F07FCF8CCE322F307609F056
S1130E507ACFB1CDDF91CF911F910F91FF9008957B
S1130E6043E050E061E080E096E0E8D943E050E000
S1130E7062E080E096E0E2D943E050E064E080E0A4
S1130E8096E0DCD943E050E068E080E096E0D6D913
S1130E9043E050E060E180E096E0D0D943E050E0E8
S1130EA060E280E096E0CAD943E050E060E480E08C
S1130EB096E0C4D943E050E060E880E096E0BED913
S1130EC040E058E161E080E296E0B8D940E058E1C2
S1130ED062E080E296E0B2D940E058E164E080E26A
S1130EE096E0ACD940E058E168E080E296E0A6C91B
S1130EF0811118C090911822992389F09FB7F89412
S1130F00E1EEF2E22081215020839FBF08C09FB709
S1130F10F894E1EEF2E220812F5F20839FBF80935B
S1130F201822089590911822992389F3F8CF282F35
S1130F302F7030E0220F331F992787FD9095882763
S1130F40990F881F9927280F391F220F331F220F4B
S1130F50331F220F331F20543E4D822F932F0895A9
S1130F600F931F93CF93DF936370613011F038F0C8
S1130F7003C000EC10E005C000E810E002C000E48B
S1130F8010E040385105F9F050F440325105A9F011
S1130F9040345105A9F04031510561F420C0411598
S1130FA092E05907B1F04F3F93E05907A9F041157A
S1130FB0514061F0C0E0D0E014C0C2E0D0E011C004
S1130FC0C3E0D0E00EC0C4E0D0E00BC0C5E0D0E088
S1130FD008C0C6E0D0E005C0C7E0D0E002C0C1E070
S1130FE0D0E0A5DFFC01118286E08083C02BC183A1
S1130FF0DF91CF911F910F9108950F93E8ECF4E0E6
S113100080818F7D808380818F7D8083E8ECF1E215
S113101002E005931092CA211092CB2100E20693BC
S113102000E40693E0ECF1E200E2069300E40693A8
S11310301092F2221092F3221092F4221092F522CE
S11310401092F0221092F1221092D9221092DA22F8
S11310500F9108950F9385E090E08093D9229093A7
S1131060DA22E9ECF1E204E00593E1ECF1E204E0D8
S113107005930F9108950F9383E090E08093D92214
S11310809093DA221092CA211092CB21E8ECF1E27B
S113109002E006930F9108950F9384E090E080930B
S11310A0D9229093DA22E0ECF1E202E006930F9168
S11310B00895E091F222F091F322309709F0099516
S11310C008950F93CF93DF938091D9229091DA22E0
S11310D0039719F4EEDF91DF5AC08091DD229091DD
S11310E0DE22C091F022D091F122C81BD90B41F528
S11310F02091DB223091DC22820F931F8093DB222C
S11311009093DC222091EC223091ED2282179307F8
S113111021F08091DF22882311F0BEDF38C0E091F6
S1131120F422F091F522309799F00995882381F003
S11311301092DD221092DE22C091F022D091F12291
S1131140C034D10528F01092DF22C0E4D0E003C0FF
S113115081E08093DF22C093CA21D093CB21809178
S1131160DD229091DE222091EE223091EF22280F91
S1131170391F2093CC213093CD21C80FD91FC093A0
S1131180DD22D093DE22E8ECF1E202E00693DF9167
S1131190CF910F910895FC01818187708430A9F06B
S11311A030F4823061F070F4813031F41AC086304A
S11311B091F070F0873091F028E030E014C020E224
S11311C030E011C020E430E00EC020E830E00BC075
S11311D020E031E008C020E032E005C02FEF33E02A
S11311E002C020E130E0822F932F0895282F2F7022
S11311F030E0220F331F992787FD90958827990F98
S1131200881F9927280F391F22503109C901880FD7
S1131210991F880F991F880F991F280F391F2C5069
S11312203E4D822F932F08950F938091CC0480FF1D
S11312306CC081E08093CC04E0ECF1E200E806931A
S1131240E8ECF1E200E806938093CA04E0ECF1E2F2
S113125000E106938091D9229091DA22009729F037
S11312600397029708F425DFC8DE8091C22190918C
S1131270C321089709F04BC088E0E9E9F2E2A6EE41
S1131280B2E201900D928A95E1F7E8ECF4E08081F6
S1131290806280838081806280836FDB811103C0E0
S11312A0D9DE81E035C08091E62288238CF4109247
S11312B0DB221092DC221092DD221092DE2282E0E8
S11312C090E08093D9229093DA22FBDE81E020C063
S11312D08091EC229091ED22892B19F4CCDE81E0EF
S11312E017C01092DB221092DC221092DD221092A1
S11312F0DE2281E090E08093D9229093DA22E0EC20
S1131300F1E202E0069381E003C080E001C081E0E5
S11313100F910895BF92CF92DF92EF92FF920F93B5
S11313201F93CF93DF93B82E61DFEC018B2DFFDD8C
S11313307C0131DF6C01BB200CF05DC0D701169637
S11313402D913C9117978D819E81280F391F2D83F4
S11313503E838B819C812817390709F43AC0FC012C
S1131360E21BF30B9F012115F4E03F0738F02FEF48
S113137033E0C901B60184D3281B390B888181FF6E
S11313800BC0C901B6017CD341E050E0892B11F0B8
S113139040E050E0CA0102C080E090E0988180FB08
S11313A091F99883D70116961D921C92179712965D
S11313B02D933C93139729813A818D819E81820FCD
S11313C0931F14968D939C931597F70102E006934F
S11313D099C0888181FF87C08D7F8883D701169645
S11313E01D921C92179712961D921C921397F70147
S11313F002E0069387C0D70112960D911C911397B2
S1131400888182FF17C029813A818D819E81280FAE
S1131410391F8B819C81B60133D3B0E4BB9EF001AC
S11314201124E752FE4D482F592F6E2F7F2F822F04
S1131430932F3AD32D813E81200F311F2D833E837C
S1131440EB81FC81E217F30710F4ED83FE83D701EF
S113145016962D913C9117972017310709F043C038
S11314608D819E81E817F90709F43DC0E81BF90B4B
S1131470E115B4E0FB0740F0EFEFF3E0CF01B60174
S1131480FFD2E81BF90B05C0CF01B601F9D2E81B66
S1131490F90BD70112961D921C921397EC15FD05BA
S11314A078F4888184608883B0E4BB9EC0011124F1
S11314B087529E4DF70184839583C682D7820FC0DD
S11314C029813A818D819E81820F931FD7011496C1
S11314D08D939C9315971696ED93FC931797F701AC
S11314E002E006930FC0888180FF0CC08E7F888342
S11314F0EF81F885309731F06D817E814B2D80E04E
S113150090E00995DF91CF911F910F91FF90EF909B
S1131510DF90CF90BF90089580E008958093C30436
S113152008958091C30408952091F0213091F12110
S1131530822F932F089580E090E008958093EE2207
S11315409093EF226093F0227093F1220895EF922A
S1131550FF920F931F93CF93DF93F82EE62E8A0109
S1131560E6DCEC018981807C89F4A8016E2D8F2D45
S1131570F7DC8981807C803C21F489818770873005
S113158039F089818062898381E003C080E001C0F1
S113159081E0DF91CF911F910F91FF90EF9008951B
S11315A0C6DCFC01818182FB882780F90895CF93F2
S11315B0C82FBDDCFC01818182FF0FC081818B7F3C
S11315C081838C2F13DEFC01808180FF06C08E7F17
S11315D080830780F085E02D099581E0CF910895FF
S11315E08F929F92AF92BF92CF92DF92EF92FF922F
S11315F00F931F93CF93DF93982E862E5A01690180
S1131600F5DD7C01892D93DCEC018981807C09F472
S11316104DC08981807C803C19F0898182FD48C05D
S11316208FB7F894F701908190FF03C08FBF80E0DB
S113163040C0F7019081916090838FBFA182B282F4
S1131640C382D4821582168207831087811008C052
S113165021E030E0C114D10429F020E030E002C0E0
S113166021E030E0F701808120FB81F98B7F8083CA
S113167099201CF41E821F8215C08981807C803CC5
S113168069F4CE0188DDBC01C601FAD1892B31F0A1
S1131690F70180818E7F808380E00BC01A821B82D9
S11316A01E821F82892D36DE81E003C080E001C0E6
S11316B080E0DF91CF911F910F91FF90EF90DF9029
S11316C0CF90BF90AF909F908F9008950F931F93EA
S11316D0CF93DF93182F2BDCEC01812F87DDDC0106
S11316E0FE0102E005938C9180FF13C08E7F8C93E2
S11316F01796ED91FC911897309759F011231CF42B
S11317006E817F8102C06A817B81412F81E090E0FC
S11317100995DF91CF911F910F9108950F93CF9366
S1131720C82F05DCFC0181818460818301E006937C
S11317308C2FCCDF81E0CF910F910895CF93C82FE8
S1131740C5DF8C2FF4DBFC011182CF9108951F9229
S11317500F920FB60F9211240BB60F920F932F9383
S11317603F934F935F936F937F938F939F93AF9325
S1131770BF93EF93FF938091CB0488232CF480E8EC
S11317808093CA04CBD883C08091CB0482FF23C04A
S113179084E08093CA048091C82186FF78C0809138
S11317A0CC0481FD74C040DD811171C08091D922C7
S11317B09091DA228130910511F45DDC68C00497C0
S11317C009F065C0E9ECF1E204E00593E1ECF1E233
S11317D004E005935CC08091CB0481FF53C082E098
S11317E08093CA048091C02186FF51C08091CC04AB
S11317F081FD4DC019DD81114AC08091D92290919B
S1131800DA228230910511F447DC41C0039709F0D4
S11318103EC0E9ECF1E204E00593E1ECF1E204E01E
S1131820059335C080E18093CA0481E04FDF81E8ED
S11318304DDF4DD81092C30440E450E060E080E0F6
S11318408FDB40E450E060E080E88ADB89E992E2E3
S11318508093C4219093C521D0DB19C08091CB041F
S113186086FF06C080E48093CA0480E041DB0FC099
S11318708091CB0485FF0BC080E28093CA0481E091
S113188037DB05C08091CB0484FDCCCFE7CFFF913B
S1131890EF91BF91AF919F918F917F916F915F91E4
S11318A04F913F912F910F910F900BBE0F900FBE50
S11318B00F901F9018951F920F920FB60F9211243C
S11318C00BB60F920F931F932F933F934F935F93F6
S11318D06F937F938F939F93AF93BF93CF93DF9334
S11318E0EF93FF938091CC0481FD03C09DDC8111B3
S11318F0ACC082E08093CC048091C5048195880FAC
S1131900E0ECF1E2E81BF10920813181205C3142F5
S1131910369527953695279536952795822F869562
S113192020FF02C0C0E801C0C0E0C80F8C2FFFDA5E
S1131930FC01808185FF89C000E20693C1117FC04C
S11319408091D9229091DA22049719F4B2DB55DB05
S11319507CC0C091C221D091C3218091F02290918A
S1131960F1220091DD221091DE2298012C0F3D1FFF
S11319708217930718F4EC01C01BD10B2091EE22BF
S11319803091EF22200F311F89E992E24C2F5D2F15
S1131990682F792F822F932F87D00C0F1D1F009350
S11319A0DD221093DE22C034D10569F48091DB225C
S11319B09091DC22800F911F2091EC223091ED2236
S11319C08217930788F00093F0221093F122E0919C
S11319D0F422F091F522309729F00995811102C083
S11319E039DB33C048DB31C08091F0229091F12281
S11319F008171907F9F4E091F422F091F5223097D1
S1131A0011F428DB22C00995811102C023DB1DC01B
S1131A102091DB223091DC228091DD229091DE2224
S1131A20820F931F8093DB229093DC221092DD229D
S1131A301092DE22E0ECF1E202E0069306C0C03828
S1131A4011F43FDB02C08C2F65DCFF91EF91DF9135
S1131A50CF91BF91AF919F918F917F916F915F9142
S1131A604F913F912F911F910F910F900BBE0F90AB
S1131A700FBE0F901F901895F3D980E090E0089561
S1131A80AA1BBB1B51E107C0AA1FBB1FA617B707A0
S1131A9010F0A61BB70B881F991F5A95A9F78095BC
S1131AA09095BC01CD010895FB01DC0102C00190B9
S1111AB00D9241505040D8F70895F894FFCF9E
S1131ABE0000F62220003A0384018E0190018E026A
S1131ACE46017E019201900100006A201E2026200C
S1131ADE22201020062009024300020100C0320910
S1131AEE0400000102020100052400100104240276
S1131AFE02052406000105240103010705820340A3
S1131B0E001009040100020A0000000705810240CA
S1131B1E000007050202400000001201000202004C
S1131B2E0040EB0304240001000000010403090437
S9030000FC
