:100000003AC1000057C1000055C1000053C10000B3
:1000100051C100004FC10000C8C10000EEC1000086
:1000200014C200003AC2000045C1000043C10000F4
:1000300041C100003FC100003DC100003BC10000C4
:1000400039C1000037C1000035C1000033C10000D4
:1000500031C100002FC100002DC100002BC10000E4
:1000600029C1000027C1000025C1000023C10000F4
:1000700021C100001FC100001DC100001BC1000004
:1000800019C1000017C1000015C1000013C1000014
:1000900011C100000FC100000DC100000BC1000024
:1000A00009C1000007C1000005C1000003C1000034
:1000B00001C10000FFC00000FDC00000FBC0000047
:1000C000F9C00000F7C00000F5C00000F3C0000058
:1000D000F1C00000EFC00000EDC00000EBC0000068
:1000E000E9C00000E7C00000E5C00000E3C0000078
:1000F000E1C00000DFC00000DDC00000DBC0000088
:10010000D9C00000D7C00000D5C00000D3C0000097
:10011000D1C00000CFC00000CDC00000CBC00000A7
:10012000C9C00000C7C00000C5C00000C3C00000B7
:10013000C1C00000BFC00000BDC00000BBC00000C7
:10014000B9C00000B7C00000B5C00000B3C00000D7
:10015000B1C00000AFC00000ADC00000ABC00000E7
:10016000A9C00000A7C00000A5C00000A3C00000F7
:10017000A1C000009FC000009DC000009BC0000007
:1001800099C0000097C0000095C0000093C0000017
:1001900091C000008FC000008DC000008BC0000027
:1001A00089C0000087C0000085C0000083C0000037
:1001B00081C000007FC000007DC000007BC0000047
:1001C00079C0000077C0000075C0000073C0000057
:1001D00071C000006FC000006DC000006BC0000067
:1001E00069C0000067C0000065C0000063C0000077
:1001F00061C000000C94590F0C941C10610B4F0B44
:10020000520B550B580B5B0B5E0B42111A111C1154
:100210001E11201122112411261128111811181154
:10022000181118111811181118112A112C112E114A
:100230003011321134111811181118111811181128
:100240001811181118111811181118111811181166
:100250001811181118111811181118111811181156
:1002600018111811181118111811361138113A11E6
:100270003C113E11401111241FBECFEFCDBFDFE274
:10028000DEBF10E2A0E0B0E2E0EBF4E200E00BBF82
:1002900002C007900D92A43BB107D9F729E2A4EB65
:1002A000B0E201C01D92A034B207E1F70E94021231
:1002B0000C945612A5CE0895CF93DF93282F30E0EB
:1002C000F9017196E295F295F07FFE27E07FFE2717
:1002D000A0E0B1E014969C9114971396AC91A901FB
:1002E0004C5F5F4F61E070E0EB01042E02C0CC0F69
:1002F000DD1F0A94E2F7082E02C0660F771F0A94EA
:10030000E2F76C2BA623B0E0ED01042E02C0D595D8
:10031000C7950A94E2F7C0FD1CC0082E02C0B5952F
:10032000A7950A94E2F7A0FD17C0692370E0DB01EE
:1003300002C0B595A7954A95E2F7A0FD10C0AB01A4
:1003400002C0559547958A95E2F7CA0181709927B1
:1003500008C084E090E005C083E090E002C082E045
:1003600090E0418140634183F901EE0FFF1FE95E98
:10037000F84D0190F081E02D309709F00995DF915B
:10038000CF91089561E080E090E054D18FB7F89468
:10039000E0E2F7E290819F5F90838FBFE0E0F1E0C1
:1003A00080E4808380E8808308951F920F920FB6C7
:1003B0000F9211240BB60F922F933F934F935F939D
:1003C0006F937F938F939F93AF93BF93EF93FF931D
:1003D00080E072DFFF91EF91BF91AF919F918F917C
:1003E0007F916F915F914F913F912F910F900BBE35
:1003F0000F900FBE0F901F9018951F920F920FB67F
:100400000F9211240BB60F922F933F934F935F934C
:100410006F937F938F939F93AF93BF93EF93FF93CC
:1004200081E04ADFFF91EF91BF91AF919F918F9152
:100430007F916F915F914F913F912F910F900BBEE4
:100440000F900FBE0F901F9018951F920F920FB62E
:100450000F9211240BB60F922F933F934F935F93FC
:100460006F937F938F939F93AF93BF93EF93FF937C
:1004700082E022DFFF91EF91BF91AF919F918F9129
:100480007F916F915F914F913F912F910F900BBE94
:100490000F900FBE0F901F9018951F920F920FB6DE
:1004A0000F9211240BB60F922F933F934F935F93AC
:1004B0006F937F938F939F93AF93BF93EF93FF932C
:1004C00083E0FADEFF91EF91BF91AF919F918F9101
:1004D0007F916F915F914F913F912F910F900BBE44
:1004E0000F900FBE0F901F901895DB01E82FF0E0E2
:1004F0007196E295F295F07FFE27E07FFE272FB7F9
:10050000F89419968C91199784871A968C911A975A
:100510008587168617968C911797808718968C91E9
:1005200018978187128612968C9112978283139660
:100530008C911397838314968D919C911597848346
:10054000958316968C911697868311968C911197A8
:1005500081838C918F7780832FBF0895CF93DF9312
:1005600000D000D0CDB7DEB78FEF809370008093BE
:100570007100809372008093730080937400809365
:1005800075008093760064E081E490E080D76CE1B0
:1005900070E082E082D78A836DE170E082E07DD7EF
:1005A000898389819A81019621F480E493E2898389
:1005B0009A8389819A818B839C83E0E6F0E0828331
:1005C0008C8183838FB7F894E0E5F0E090819260AE
:1005D00090838FBF818181FFFDCF8FB7F894A0E515
:1005E000B0E016969C911697997F16969C93169755
:1005F000E0E6F0E090E895839BEB968316969C915D
:100600001697946016969C939081916090838FBF0B
:1006100061E080E490E03BD78FB7F894E0E5F0E04C
:1006200090819E7F90838FBF2496CDBFDEBFDF91E8
:10063000CF9108952FB7F894FC01E059FF4F6095D2
:100640008081682360832FBF0895863011F468E1AC
:1006500001C060E0E0E5F0E0818181FD24C08FB75A
:10066000F8949081926090838FBF818181FFFDCF4C
:100670008FB7F894A0E5B0E016969C911697997FF5
:1006800016969C931697E0E6F0E090E895839BEB36
:10069000968316969C911697946016969C939081DB
:1006A000916090838FBF636084E490E0F0D660E453
:1006B00080E090E0BFCF08951092CA251092D62511
:1006C0001092D72581EA8093CC2580E28093CD25B6
:1006D0001092CE251092CF251092D0251092D125C0
:1006E00082E090E08093D2259093D3251092D42578
:1006F0001092D52580E092ECA1E0B0E08093D8255F
:100700009093D925A093DA25B093DB251092DC25B0
:100710001092DD2588E08093DE258091CA258F5FC9
:100720008093CA2581E008958091CA2581508093E5
:10073000CA2508958091C92581508093C92580914B
:10074000C9251092C825089580E0089580E0089595
:10075000809125278823DCF480768032E9F580912A
:1007600026278132D9F580912B2790912C27079746
:10077000B9F588ED95E280932D2790932E2787E099
:1007800090E080932F279093302781E00895807622
:10079000803241F580912627803221F0823221F586
:1007A00081E0089580912B2790912C270797F1F4F1
:1007B00088EF93E0809331279093322788ED95E27C
:1007C00080932D2790932E2787E090E080932F270A
:1007D0009093302781E0089580E0089580E00895A7
:1007E00080E0089580E0089580E0089580E0089515
:1007F0000895FF920F931F93CF93DF938091B720BB
:1008000081119BC00E949A0D882351F0C091B8209D
:10081000D091B9200E94A70DC817D90759F48DC0EF
:10082000C091B820D091B9200E94A20DC817D90755
:1008300009F483C0DFB7F894C091BA20EC2FF0E040
:10084000EE0FFF1FE554FF4D80819181892B09F543
:100850008091B4209091B52001968093B42090931C
:10086000B5200E949A0D811107C08091B42090910B
:10087000B5208436910558F00E949A0D882349F0DE
:100880008091B4209091B5208032934010F4DFBF66
:1008900054C01092B4201092B5208091B6208111DE
:1008A00006C081E0C11180E08093BA2004C081E0DD
:1008B000C11180E0C82F81E08093B720DFBFD0E076
:1008C000FE01EE0FFF1FE554FF4DFF24F3948081DE
:1008D00091818034914009F4F12CFF2091F00E9425
:1008E0009A0D882339F00E94A70D8093B820909329
:1008F000B9200BC00E94A20D8093B8209093B9201C
:1009000004C01092B8201092B920FE01EE0FFF1F14
:10091000E554FF4D2081318180E491E0C89FA00122
:10092000C99F500DD89F500D112440545F4D03EACC
:1009300014E06F2D81E80E945A0EDF91CF911F9134
:100940000F91FF900895892BA9F42091BA2081E09E
:1009500090E0222311F080E090E0FC01EE0FFF1FF9
:10096000E554FF4D108211821092B6201092B720EC
:1009700080E03FCF089580E03CCF08954FB7F894D2
:100980002091412330914223E0914323F0E0EE0F88
:10099000FF1FEC5BFC4D80819181821B930B4FBF4D
:1009A0000895ECDF21E0892B09F420E0822F0895DF
:1009B0000F931F93CF93DF934FB7F8945091432336
:1009C00080914023811110C0209141233091422316
:1009D000C52FD0E0FE01EE0FFF1FEC5BFC4D8081C8
:1009E00091812817390718F44FBF80E027C0109273
:1009F00041231092422381E0511180E080934323F0
:100A000081E0809340234FBF80E0CBDF882319F043
:100A100080E00E94441180E491E0C89FA001C99F3A
:100A2000500DD89F500D1124485B5C4D05E515E035
:100A300020E431E061E082E00E945A0EDF91CF9124
:100A40001F910F9108951092C9251092B72010920E
:100A5000B6201092BA201092BB201092BC201092A7
:100A6000BD201092BE201092B8201092B92080E0D4
:100A7000C0DE109240231092432310924423109220
:100A80004523109241231092422380E091DF882376
:100A900059F09091C9259F5F9093C9259091C925E0
:100AA000913011F49093C82508950F931F93A42FAC
:100AB000892B39F580914323E1E08111E0E0611554
:100AC0007105A1F4F0E020E431E0E29FB001E39F82
:100AD000700DF29F700D1124AB01485B5C4D05E574
:100AE00015E061E08A2F0E945A0E0BC0F0E0EE0F75
:100AF000FF1FEC5BFC4D608371831092402380E00C
:100B000057DF1F910F91089580E04BCF0895FF921A
:100B10000F931F93CF93DF93FF24F3948091DE25EF
:100B2000893009F0F12C60E070E0C0E4D1E03FB71B
:100B3000F8948091412390914223209143233FBF19
:100B400030E0F901EE0FFF1FEC5BFC4D408151815D
:100B50008417950730F08091C8258111E8CF90E087
:100B60001DC02C9FF0012D9FF00D3C9FF00D112416
:100B7000E80FF91FE85BFC4D20818B01022B0196E9
:100B8000809341239093422380E012DFFF2021F0E5
:100B9000702F6627F12CCBCF802F912FDF91CF9133
:100BA0001F910F91FF90089580E0B1CF08955FB736
:100BB000F8942091BA20E22FF0E0EE0FFF1FE554E9
:100BC000FF4D8081918141E0211140E0E42FF0E070
:100BD000EE0FFF1FE554FF4D20813181803461E02D
:100BE000960789F46091B72061110DC06091B6201D
:100BF000611109C081E08093B6204093BA2020E4BF
:100C000031E080E090E05FBF280F391F80E892E07C
:100C1000821B930B0895CBDF21E0892B09F420E0A0
:100C2000822F0895FF920F931F93CF93DF93F62E99
:100C3000172F01E08091DE25893009F000E0C0E443
:100C4000D1E080E0E8DF811107C08091C8258111E3
:100C5000F8CF80E090E028C06FB7F8942091BA20D8
:100C600030E0F901EE0FFF1FE554FF4D80819181C7
:100C7000AC014F5F5F4F408351832C9FF0012D9F4C
:100C8000F00D3C9FF00D11248E0F9F1FFC01E054CE
:100C9000FF4DF0826FBF002329F0F12E110F110BD1
:100CA00000E0CFCF81E090E0DF91CF911F910F91D5
:100CB000FF900895BC0180E0B5CF0895E091E42550
:100CC000F091E5250190F081E02D228133812E0FF6
:100CD0003F1FFC014081E40FF11DE217F307A0F470
:100CE00081818430A1F0861306C014C081818430D4
:100CF000A1F08617A9F08081E80FF11DE217F30734
:100D0000A8F380E090E0089580E090E0089580E00E
:100D100090E008958E2F9F2F089580E090E0089531
:100D20008E2F9F2F0895809127278F7705C70895CD
:100D30009091E625992381F1E091E425F091E52554
:100D40000190F081E02D9481891740F5E093E22530
:100D5000F093E325228133812E0F3F1FE217F30723
:100D6000F8F49181943061F49281981309C09381D1
:100D7000961306C0E093E225F093E32581E0089501
:100D80009081E90FF11DE217F30758F3E093E22594
:100D9000F093E32580E0089580E0089580E00895D1
:100DA00080E00895FF920F931F93CF93DF93C82F96
:100DB00060E0BEDFF82E882381F1A091E425B09198
:100DC000E525EC2FF0E0EE0FFF1F12962D913C91E0
:100DD0001397E20FF31F00811181D8011696ED9150
:100DE000FC9117970995682F8C2FA2DFF82E882386
:100DF000A1F0C091E225D091E32565E0CE015EDF50
:100E0000EC01009721F08A810E941B0FF6CFD801D8
:100E10001296ED91FC91139709958F2DDF91CF914B
:100E20001F910F91FF9008951F93CF93DF93182F79
:100E30007FDF882339F1C091E225D091E32565E079
:100E4000CE013CDFEC01009741F04C815D816B816C
:100E50008A8189D68111F3CF15C0A091E425B09184
:100E6000E525812F90E0880F991F1296ED91FC9156
:100E70001397E80FF91F0190F081E02D0190F081A8
:100E8000E02D0995DF91CF911F910895E1C5089557
:100E9000CF938091E6258823C1F0E091E425F0917D
:100EA000E5250190F081E02D8481882371F0C0E078
:100EB0008C2F78DFCF5FE091E425F091E52501905C
:100EC000F081E02D8481C81798F31092E62581E027
:100ED00090E08093E7259093E825CF910895CF93F4
:100EE0008091E625882341F1E091E425F091E52504
:100EF000A081B18114968C918823F1F0C0E08C2FF1
:100F000090E0880F991F0280F381E02DE80FF91F10
:100F10000190F081E02D0084F185E02D309709F0FB
:100F20000995CF5FE091E425F091E525A081B1819D
:100F300014968C91C81718F3CF910895EF92FF92F1
:100F40000F931F93CF93DF9310922F271092302788
:100F500010923127109232271092332710923427A3
:100F60002091252722230CF078C280912B27909185
:100F70002C27009709F076C26CC22F7109F09EC031
:100F800030912627363081F0383009F48CC0311189
:100F900095C0029739F462E070E087EE95E2DAD509
:100FA00001E0DAC100E0D8C120912727309128273D
:100FB000832F99278230910579F08330910569F16B
:100FC000019709F068C08091142090911520DC01F0
:100FD0006C9170E0BFD54EC0E0911420F0911520C7
:100FE0008189281708F059C0C9019927880F991FCE
:100FF000880F991FE0911620F0911720E80FF91F34
:1010000080819181FC0162817381A4D5E0912D27BB
:10101000F0912E2782E081832DC0332721303105C6
:1010200081F048F02230310509F421C22330310526
:1010300009F421C234C064E070E08CEA90E28AD501
:1010400019C08DE990E22EE0382FA8E7B0E2E82F32
:10105000F92F819190E08D939D938E2F831B8217A2
:10106000C0F3220F62E0620F6093762070E086E7A3
:1010700090E270D580912B2790912C2720912F27DB
:10108000309130278217930760F480932F27909335
:10109000302701E061C100E05FC100E05DC100E018
:1010A0005BC101E059C1019739F461E070E086EE5F
:1010B00095E250D501E050C100E04EC1213009F069
:1010C0003FC0309126273A30D9F5019799F58091A4
:1010D000E625882389F1C0912927D0912A27E0901D
:1010E000E425F090E525D701ED91FC918481C817A6
:1010F00028F560E08C2F1CDE082F882309F42CC112
:10110000CE019927880F991FD7011296ED91FC9176
:101110001397E80FF91F0190F081E02D0680F78109
:10112000E02D09958093E12561E070E081EE95E284
:1011300011D512C100E010C100E00EC100E00CC1E9
:10114000223009F00BC120912627211100C10297FE
:1011500079F48091292769D590E08093DF259093D9
:10116000E02562E070E08FED95E2F4D401E0F4C098
:1011700000E0F2C02F7109F090C0809126278330E3
:1011800009F4E7C018F48130B1F087C0853019F058
:10119000893061F182C080912B2790912C27892B77
:1011A00041F483E996E0809331279093322701E060
:1011B000D3C000E0D1C080912B2790912C27892BA0
:1011C00089F48091272790912827019769F48091CD
:1011D000E7259091E8258D7F8093E7259093E8257A
:1011E00001E0BAC000E0B8C000E0B6C080912B2793
:1011F00090912C27892B09F046C0A1D4882309F4AB
:1012000044C020912727309128273327E0911420CC
:10121000F0911520818990E082179307C0F138DEA4
:1012200080912727909128278093E625882389F1AC
:1012300099278150904C880F991F880F991FE09132
:101240001620F0911720E80FF91FE093E425F093A2
:10125000E5250190F081E02D84818823E1F0C0E054
:1012600060E08C2FE1DD082F882309F475C0CF5F83
:10127000E091E425F091E5250190F081E02D848155
:10128000C81770F369C000E067C000E065C000E007
:1012900063C001E061C001E05FC0213009F58091C9
:1012A00026278B30E9F480912B2790912C27892BCE
:1012B00099F48091E625882389F0C0912927D0915F
:1012C00027278C2F6FDD082F882309F445C06D2F49
:1012D0008C2FAADD082F40C000E03EC000E03CC0DB
:1012E000223009F03BC080912627813019F08330ED
:1012F000B1F031C080912B2790912C27892B59F484
:101300008091272790912827892B39F480912927CC
:10131000A7D4082F21C000E01FC000E01DC08091AD
:101320002B2790912C27892B71F48091272790915E
:101330002827892B51F4C9E2D7E2888142D58881D8
:1013400097D5082F09C000E007C000E005C000E005
:1013500003C000E001C000E0011191C08091252789
:101360008F718130C1F58091E6258823A1F1C0916C
:101370002927D0912A270091E4251091E525D8014D
:10138000ED91FC918481C81730F560E08C2FD0DCA2
:10139000882309F1CE019927880F991FD801129649
:1013A000ED91FC911397E80FF91F00811181D8018D
:1013B0001696ED91FC9117970995682F8C2FB8DC44
:1013C000882349F0D8011496ED91FC911597099561
:1013D000082F811154C0809125278F718230D9F553
:1013E0008091E625882389F1E091E425F091E525B7
:1013F000A081B18114968C91882349F110E0212FAE
:1014000030E0220F331F0280F381E02DE20FF31F43
:10141000C081D181EE81FF810995682F812F88DC01
:10142000082F882361F1EC81FD810995082F811136
:1014300026C01F5FE091E425F091E525A081B181F0
:1014400014968C911817D8F21AC000E018C000E06A
:1014500016C000E014C000E012C0822F807609F0B0
:101460007DCF88CE322F307609F078CF86CD28E038
:1014700084E990E2E9CD21E081EB90E2E5CD802F97
:10148000DF91CF911F910F91FF90EF9008951BBEB8
:10149000FC0128ED24BF608308954091CA01E62F26
:1014A000F72F8093CA0184914093CA010895811156
:1014B00018C090911427992389F09FB7F894E0E21F
:1014C000F7E22081215020839FBF08C09FB7F89486
:1014D000E0E2F7E220812F5F20839FBF80931427F3
:1014E000089590911427992389F3F8CF0F93E8EC8E
:1014F000F4E080818F7D808380818F7D8083E8EE22
:10150000F6E202E005931092EA261092EB2600E242
:10151000069300E40693E0EEF6E200E2069300E4B0
:10152000069310923127109232271092332710928F
:10153000342710922F27109230271092D226109223
:10154000D3260F9108950F9385E090E08093D226E3
:101550009093D326E9EEF6E204E00593E1EEF6E29D
:1015600004E005930F9108950F9383E090E080933A
:10157000D2269093D3261092EA261092EB26E8EE1C
:10158000F6E202E006930F910895E0913127F09181
:101590003227309709F0099508950F93CF93DF9381
:1015A0008091D2269091D326039719F4EEDF9EDF27
:1015B00063C08091CE269091CF26C0912F27D091E5
:1015C0003027C81BD90B89F52091D0263091D12620
:1015D000820F931F8093D0269093D12620912B27A2
:1015E00030912C278217930721F08091E9258823D9
:1015F00059F084E090E08093D2269093D326E0EED9
:10160000F6E202E0069338C0E0913327F0913427E8
:10161000309799F00995882381F01092CE26109288
:10162000CF26C0912F27D0913027C034D10528F084
:101630001092E925C0E4D0E003C081E08093E92561
:10164000C093EA26D093EB268091CE269091CF26A8
:1016500020912D2730912E27280F391F2093EC261B
:101660003093ED26C80FD91FC093CE26D093CF2636
:10167000E8EEF6E202E00693DF91CF910F91089534
:10168000FC018181877090E0FC013197E730F10522
:1016900018F4E250FF4FFBC688E090E0089580E226
:1016A00090E0089580E490E0089580E890E0089547
:1016B00080E091E0089580E092E008958FEF93E05C
:1016C000089580E190E00895282F2F7030E0220FD8
:1016D000331F992787FD90958827990F881F992791
:1016E000820F931F02979C01220F331F220F331F7B
:1016F000220F331F820F931F8659994D08950F9320
:10170000CF938091CC0480FF6AC081E08093CC04A9
:10171000E0EEF6E200E80693E8EEF6E200E8069373
:101720008093CA04E0EEF6E200E106938091D226AF
:101730009091D326009729F00397029708F425DFAC
:10174000D5DE8091E2269091E326089709F049C002
:1017500088E0EEE8F6E2A5E2B7E201900D928A9504
:10176000E1F7E8ECF4E08081806280838081806230
:101770008083E4DBC82F811103C0E5DEC1E032C005
:1017800080912527882384F41092D0261092D126A8
:101790001092CE261092CF2622E030E02093D2265F
:1017A0003093D326FADE1EC020912B2730912C27B0
:1017B000232B11F4D9DE16C01092D0261092D12618
:1017C0001092CE261092CF2621E030E02093D22630
:1017D0003093D326E0EEF6E202E0069303C0C0E0C9
:1017E00001C0C1E08C2FCF910F910895BF92CF928D
:1017F000DF92EF92FF920F931F93CF93DF93B82E58
:1018000063DFEC011B2D111F1127111F8B2D8F7012
:10181000E82EF12CEE0CFF1CE10EF11CC701880F25
:10182000991F880F991F880F991F9C012052394DCD
:101830007901C90125DF6C01112309F459C0D701D1
:1018400016962D913C9117978D819E81280F391FF7
:101850002D833E838B819C8128173907B9F1FC01C8
:10186000E21BF30B9F012115F4E03F0738F02FEF47
:1018700033E0C901B601F7D5281B390B888181FFF8
:1018800009C0C901B601EFD541E0892B09F040E05C
:10189000942F01C090E0888190FB81F98883D70163
:1018A00016961D921C92179712962D933C931397A0
:1018B00029813A818D819E81820F931F14968D9389
:1018C0009C931597F70102E0069395C0888181FFEC
:1018D00083C08D7F8883D70116961D921C9217971F
:1018E00012961D921C921397F70102E0069383C093
:1018F000D70112960D911C911397888182FF13C016
:10190000E981FA812D813E818B819C81B601ABD525
:10191000B0E4BB9EB001112466557A4DAC01CF01F5
:10192000820F931FBAD52D813E81200F311F2D8349
:101930003E83EB81FC81E217F30710F4ED83FE8315
:10194000D70116968D919C9117978017910709F0F2
:1019500043C08D819E81E817F90709F43DC0E81B5B
:10196000F90BE115B4E0FB0740F0EFEFF3E0CF0136
:10197000B60179D5E81BF90B05C0CF01B60173D5C7
:10198000E81BF90BD70112961D921C921397EC15C8
:10199000FD0578F4888184608883B0E4BB9EC00133
:1019A000112486559A4DF70184839583C682D78288
:1019B0000FC029813A818D819E81820F931FD701AB
:1019C00014968D939C9315971696ED93FC93179709
:1019D000F70102E006930FC0888180FF0CC08E7F64
:1019E0008883EF81F885309731F06D817E814B2DB2
:1019F00080E090E00995DF91CF911F910F91FF90CA
:101A0000EF90DF90CF90BF900895CF93CFB7F89429
:101A100081E04DDDEAECF4E080E4808380E28083C5
:101A2000E1ECF4E0808181608083A9ECB4E08C91EA
:101A300082608C93E8ECF4E08081806480838C91F8
:101A400081608C93808180688083CFBFCF9108951F
:101A5000CF93DF93C0E6D0E0188280E30E94250395
:101A6000E0ECF4E080818064808381E08883CFB7FC
:101A7000F8941092E1261092E9261092F126109225
:101A8000F9261092012710920927EAE6F6E28081F2
:101A90008E7F8083E3E7F6E280818E7F8083ECE7B0
:101AA000F6E280818E7F8083E5E8F6E280818E7F9A
:101AB00080836AE170E082E0F0DC8F3F19F0809370
:101AC000FA0403C08FE18093FA046BE170E082E0D6
:101AD000E4DC8F3F19F08093FB0403C08FE1809317
:101AE000FB04E0ECF4E08081826080838081806888
:101AF000808380818061808380EE96E286839783F5
:101B00008081806280838FEF8093C504E8ECF4E0ED
:101B1000808181608083109214278FB7F894E4E26B
:101B2000F7E290819F5F90838FBF6FDFCFBFDF9120
:101B3000CF91089580E008958093C3040895809123
:101B4000C30408958091102790911127089580E093
:101B500090E0089580932D2790932E2760932F2750
:101B6000709330270895E82FEF70F0E0EE0FFF1F1D
:101B7000992787FD90958827990F881F9927E80F47
:101B8000F91FEE0FFF1FEE0FFF1FEE0FFF1FE052BA
:101B9000F94D8181807C09F044C06370613011F09F
:101BA00018F404C020EC03C020E801C020E4403851
:101BB0005105E1F050F440325105A1F04034510597
:101BC00099F04031510561F419C0411582E0580780
:101BD00089F04F3F83E0580779F04115514041F0BB
:101BE00080E00DC082E00BC083E009C084E007C044
:101BF00085E005C086E003C087E001C081E0118276
:101C000096E09083822B81838181807C803C21F4CB
:101C100081818770873039F081818062818381E0A2
:101C2000089580E0089581E00895E82FEF70F0E0D6
:101C3000EE0FFF1F992787FD90958827990F881F22
:101C40009927E80FF91FEE0FFF1FEE0FFF1FEE0F92
:101C5000FF1FE052F94D818182FB882780F90895AA
:101C6000E82FEF70F0E0EE0FFF1F282F332727FD3E
:101C700030952227330F221F3327E20FF31FEE0F79
:101C8000FF1FEE0FFF1FEE0FFF1FE052F94D918176
:101C900092FF0EC091819B7F918316DDFC018081B4
:101CA00080FF06C08E7F80830780F085E02D099538
:101CB00081E008957F928F929F92AF92BF92CF92D0
:101CC000DF92EF92FF920F931F93CF93DF93982EA3
:101CD000862E5A016901F8DC7C01792C771C772467
:101CE000771CC92DCF70D0E0CC0FDD1FC70DD11DE3
:101CF000CC0FDD1FCC0FDD1FCC0FDD1FC052D94D27
:101D00008981807C09F44BC08981807C803C19F0FA
:101D1000898182FD46C08FB7F894F701908190FFCA
:101D200003C08FBF712C3EC0F701908191609083FA
:101D30008FBFF701A182B282C382D482158216823C
:101D400007831087811006C091E0C114D10419F0F7
:101D500090E001C091E0F701808190FB81F98B7FD9
:101D60008083772019F01E821F8214C08981807CB5
:101D7000803C61F4CE0184DCBC01C60174D3892BA4
:101D800029F0F70180818E7F80830CC01A821B822C
:101D90001E821F82892D2ADD7724739403C0712C43
:101DA00001C0712C872DDF91CF911F910F91FF9072
:101DB000EF90DF90CF90BF90AF909F908F907F90EB
:101DC0000895FF920F931F93CF93DF93182FF82E50
:101DD000FF1CFF24FF1CC82FCF70D0E0CC0FDD1FED
:101DE000CF0DD11DCC0FDD1FCC0FDD1FCC0FDD1FA4
:101DF000C052D94D69DCDC01FE0102E005938C91F3
:101E000080FF13C08E7F8C931796ED91FC911897ED
:101E1000309759F0FF2019F06E817F8102C06A81EE
:101E20007B81412F81E090E00995DF91CF911F9157
:101E30000F91FF900895CF93C82FC3DFEC2FEF7061
:101E4000F0E0EE0FFF1F8C2F992787FD90958827D4
:101E5000990F881F9927E80FF91FEE0FFF1FEE0F4C
:101E6000FF1FEE0FFF1FE052F94D1182CF91089531
:101E70000F93E82FEF70F0E0EE0FFF1F282F3327AE
:101E800027FD30952227330F221F3327E20FF31F40
:101E9000EE0FFF1FEE0FFF1FEE0FFF1FE052F94D79
:101EA00091819460918301E006938BDF81E00F9133
:101EB00008951F920F920FB60F9211240BB60F9236
:101EC0000F932F933F934F935F936F937F938F93D2
:101ED0009F93AF93BF93EF93FF938091CB0488239D
:101EE00034F480E88093CA040E946F0791C0809107
:101EF000CB0482FF23C084E08093CA048091E8264B
:101F000086FF86C08091CC0481FD82C0F8DB811100
:101F10007FC08091D2269091D3268130910511F413
:101F200023DB76C0049709F073C0E9EEF6E204E023
:101F30000593E1EEF6E204E005936AC08091CB04DC
:101F400081FF61C082E08093CA048091E02686FF11
:101F50005FC08091CC0481FD5BC0D1DB811158C092
:101F60008091D2269091D3268230910559F484E055
:101F700090E08093D2269093D326E0EEF6E202E042
:101F8000069346C0039709F043C0E9EEF6E204E089
:101F90000593E1EEF6E204E005933AC080E1809318
:101FA000CA0481E00EDF81E80CDF0E94480710922E
:101FB000C304E1EEF6E2108296E09093E02683E41B
:101FC0008083E9EEF6E210829093E82680838EE823
:101FD00096E28093E4269093E52688DA19C08091F2
:101FE000CB0486FF06C080E48093CA0480E05FDAF9
:101FF0000FC08091CB0485FF0BC080E28093CA04A0
:1020000081E055DA05C08091CB0484FFE8CFC6CFCC
:10201000FF91EF91BF91AF919F918F917F916F91C0
:102020005F914F913F912F910F910F900BBE0F90A9
:102030000FBE0F901F9018951F920F920FB60F9220
:1020400011240BB60F920F931F932F933F934F932F
:102050005F936F937F938F939F93AF93BF93CF9330
:10206000DF93EF93FF938091CC0481FD03C047DBA6
:102070008111BAC082E08093CC048091C50481951F
:10208000880FE0EEF6E2E81BF10920813181205E45
:102090003642369527953695279536952795822F82
:1020A000869520FF02C090E801C090E0890FE82FDC
:1020B000EF70F0E0EE0FFF1F282F332727FD30953C
:1020C0002227330F221F3327E20FF31FEE0FFF1FCC
:1020D000EE0FFF1FEE0FFF1FE052F94D908195FFAD
:1020E00083C000E2069381117AC08091D22690913C
:1020F000D326049719F449DAF9D976C0C091E226BB
:10210000D091E32680912F27909130270091CE2601
:102110001091CF2698012C0F3D1F8217930718F4BA
:10212000EC01C01BD10B80912D2790912E27AE0181
:102130006EE876E2800F911FB0D10C0F1D1F009347
:10214000CE261093CF26C034D10569F48091D026D5
:102150009091D126800F911F20912B2730912C2711
:102160008217930788F000932F2710933027E09170
:102170003327F0913427309729F00995811102C057
:10218000E2D932C0F1D930C080912F279091302709
:1021900008171907F9F4E0913327F09134273097A5
:1021A00011F4D1D921C00995811102C0CCD91CC02C
:1021B0002091D0263091D1268091CE269091CF26A5
:1021C000820F931F8093D0269093D1261092CE2613
:1021D0001092CF26E0EEF6E202E0069305C08038CA
:1021E00011F4DBD901C002DBFF91EF91DF91CF91B8
:1021F000BF91AF919F918F917F916F915F914F911F
:102200003F912F911F910F910F900BBE0F900FBE1A
:102210000F901F901895992787FD9095A92FB92F9A
:10222000FC01F197E633F10518F4EB5FFE4F2FC187
:1022300080E0089582E0089583E0089584E00895A1
:1022400085E0089586E0089587E0089588E0089580
:1022500089E008958AE008958BE008958CE0089560
:102260008DE008958EE008958FE008958AE0089546
:102270008BE008958CE008958DE008958EE0089538
:102280008FE0089581E008950F931F93CF93DF931C
:1022900000E011E029C00E94D4058A3011F08D3091
:1022A00039F410921527109216271093B0201CC0F5
:1022B0009091B020911112C0C0911527D09116278E
:1022C000AADFFE01EB5CF84D802B80831093B020D9
:1022D0002196C0931527D093162706C09CDF082FA0
:1022E0000295007F1092B0200E9484058111D3CF07
:1022F000DF91CF911F910F910895CF93DF93E0E489
:10230000F6E08481806884838081806A8083A0EB8A
:10231000B8E085E016968C93169717961C9217973F
:1023200015968C9115978B6015968C93159714962E
:102330008C911497886014968C9314978481806292
:1023400084838481806184838BE0E5E3F9E2EF019B
:1023500019928A95E9F780E092E080933929909369
:102360003A298CED8093372985E397E280933C29C5
:1023700090933D29A0933E29B0933F298FE4809309
:1023800038290E94C201DF91CF910895E0EBF8E077
:10239000818186FFFDCFE0EBF8E08181806481835D
:1023A00089E186831782818185FFFDCF1092B00875
:1023B000E0EBF8E0818186FFFDCFE0EBF8E0818182
:1023C00080648183178285E08683818185FFFDCFCC
:1023D0001092B00865E379E280E00E9475028FB741
:1023E000F894E0E1F1E09081906890838FBFE0E0A5
:1023F000F1E084818381982F917184FDFACF90FF61
:10240000F8CF089587E0E0EAF0E0828378940E94B4
:10241000AE020E945B0160E283E090E00E941A033A
:102420006CDF0E944607E0EBF8E0818185FFFDCF7D
:102430001092B00885E397E2C5E3D9E2FC0111925E
:10244000EC17FD07E1F7082F192FA0DF81E690E0D8
:102450000E945A06E02FF12F80818F5F8193EC1745
:10246000FD07D1F7F2CFAA1BBB1B51E107C0AA1F82
:10247000BB1FA617B70710F0A61BB70B881F991F25
:102480005A95A9F780959095BC01CD010895EE0F5E
:10249000FF1F0590F491E02D0994FB01DC0102C0BF
:1024A00001900D9241505040D8F70895F894FFCF15
:1024B00023059A03A403A603BB045C039403A803A7
:1024C000A60300006420182020201C200A200020E1
:1024D00009024300020100C03209040000010202A7
:1024E0000100052400100104240202052406000155
:1024F00005240103010705820340001009040100BF
:10250000020A0000000705810240000007050202E0
:10251000400000001201000202000040EB0304240E
:1025200000010102030100030000000000000000A0
:10253000000000000000000000000000000000009B
:10254000000000005553422D3E444D58004F6D652C
:102550006761205665726B73746564000403090437
:042560000130000046
:00000001FF
