S0150000444D58436F6E74726F6C6C65722E7372656302
S11300000C94FE000C9408010C9408010C94080153
S11300100C9408010C9408010C9408010C94080138
S11300200C9408010C9408010C9408010C94080128
S11300300C9408010C9408010C9408010C94080118
S11300400C9408010C9408010C9408010C94080108
S11300500C9408010C9408010C9408010C940801F8
S11300600C9408010C9408010C9408010C940801E8
S11300700C9408010C9408010C9408010C940801D8
S11300800C9408010C9408010C9408010C940801C8
S11300900C9408010C9408010C9408010C940801B8
S11300A00C9408010C9408010C9408010C940801A8
S11300B00C9408010C9408010C9408010C94080198
S11300C00C9408010C9408010C9408010C94080188
S11300D00C9408010C9408010C9408010C94080178
S11300E00C9408010C9408010C9408010C94080168
S11300F00C9408010C9408010C9408010C94080158
S11301000C9408010C9408010C9408010C94080147
S11301100C9408010C9408010C9408010C94080137
S11301200C9408010C9408010C9408010C94080127
S11301300C9408010C9408010C9408010C94080117
S11301400C9408010C9408010C9408010C94080107
S11301500C9408010C9408010C9408010C940801F7
S11301600C9408010C9408010C9408010C940801E7
S11301700C9408010C9408010C9408010C940801D7
S11301800C9408010C9408010C9408010C940801C7
S11301900C9408010C9408010C9408010C940801B7
S11301A00C9408010C9408010C9408010C940801A7
S11301B00C9408010C9408010C9408010C94080197
S11301C00C9408010C9408010C9408010C94080187
S11301D00C9408010C9408010C9408010C94080177
S11301E00C9408010C9408010C9408010C94080167
S11301F00C9408010C9408010C94080111241FBEEE
S1130200CFEFDFE2DEBFCDBF0E9432010C944C0180
S11302100C9400002FE0E0EBF8E02683218125FF19
S1130220FDCF1092B008E0EBF8E0218125FFFDCF6F
S113023027E0E0EBF8E02683218125FFFDCF109233
S1130240B008A82FB92F80E090E0E0EBF8E021811E
S113025025FFFDCF2D9120830196811522E0920781
S1130260B1F70895CF93DF93CDB7DEB7D250CDBFAA
S1130270DEBFCE010196DE01AF5FBE4F9D01FC01E2
S11302804E2F481B41934D93E217F307C9F7CE0154
S10F029001960E940A01FBCFF894FFCFF6
S9030000FC
